{
  "_format": "hh-sol-artifact-1",
  "contractName": "AgentRegistry",
  "sourceName": "src/AgentRegistry.sol",
  "abi": [
    {
      "inputs": [],
      "stateMutability": "nonpayable",
      "type": "constructor"
    },
    {
      "anonymous": false,
      "inputs": [
        {
          "indexed": true,
          "internalType": "uint256",
          "name": "agentId",
          "type": "uint256"
        },
        {
          "indexed": true,
          "internalType": "address",
          "name": "owner",
          "type": "address"
        },
        {
          "indexed": false,
          "internalType": "uint256",
          "name": "defaultRate",
          "type": "uint256"
        },
        {
          "indexed": false,
          "internalType": "address",
          "name": "agentWallet",
          "type": "address"
        },
        {
          "indexed": false,
          "internalType": "string",
          "name": "capabilityCID",
          "type": "string"
        }
      ],
      "name": "AgentMinted",
      "type": "event"
    },
    {
      "anonymous": false,
      "inputs": [
        {
          "indexed": true,
          "internalType": "uint256",
          "name": "agentId",
          "type": "uint256"
        },
        {
          "indexed": false,
          "internalType": "bool",
          "name": "isActive",
          "type": "bool"
        }
      ],
      "name": "AgentToggled",
      "type": "event"
    },
    {
      "anonymous": false,
      "inputs": [
        {
          "indexed": true,
          "internalType": "address",
          "name": "owner",
          "type": "address"
        },
        {
          "indexed": true,
          "internalType": "address",
          "name": "approved",
          "type": "address"
        },
        {
          "indexed": true,
          "internalType": "uint256",
          "name": "tokenId",
          "type": "uint256"
        }
      ],
      "name": "Approval",
      "type": "event"
    },
    {
      "anonymous": false,
      "inputs": [
        {
          "indexed": true,
          "internalType": "address",
          "name": "owner",
          "type": "address"
        },
        {
          "indexed": true,
          "internalType": "address",
          "name": "operator",
          "type": "address"
        },
        {
          "indexed": false,
          "internalType": "bool",
          "name": "approved",
          "type": "bool"
        }
      ],
      "name": "ApprovalForAll",
      "type": "event"
    },
    {
      "anonymous": false,
      "inputs": [
        {
          "indexed": true,
          "internalType": "uint256",
          "name": "agentId",
          "type": "uint256"
        },
        {
          "indexed": false,
          "internalType": "string",
          "name": "newCapabilityCID",
          "type": "string"
        },
        {
          "indexed": false,
          "internalType": "bytes32",
          "name": "newCapabilityHash",
          "type": "bytes32"
        }
      ],
      "name": "CapabilitiesUpdated",
      "type": "event"
    },
    {
      "anonymous": false,
      "inputs": [
        {
          "indexed": true,
          "internalType": "address",
          "name": "escrow",
          "type": "address"
        },
        {
          "indexed": false,
          "internalType": "bool",
          "name": "authorized",
          "type": "bool"
        }
      ],
      "name": "EscrowAuthorized",
      "type": "event"
    },
    {
      "anonymous": false,
      "inputs": [
        {
          "indexed": true,
          "internalType": "uint256",
          "name": "agentId",
          "type": "uint256"
        },
        {
          "indexed": false,
          "internalType": "uint256",
          "name": "newScore",
          "type": "uint256"
        },
        {
          "indexed": false,
          "internalType": "uint256",
          "name": "jobsCompleted",
          "type": "uint256"
        },
        {
          "indexed": false,
          "internalType": "uint256",
          "name": "jobsAttempted",
          "type": "uint256"
        }
      ],
      "name": "OverallScoreUpdated",
      "type": "event"
    },
    {
      "anonymous": false,
      "inputs": [
        {
          "indexed": true,
          "internalType": "address",
          "name": "previousOwner",
          "type": "address"
        },
        {
          "indexed": true,
          "internalType": "address",
          "name": "newOwner",
          "type": "address"
        }
      ],
      "name": "OwnershipTransferred",
      "type": "event"
    },
    {
      "anonymous": false,
      "inputs": [
        {
          "indexed": true,
          "internalType": "uint256",
          "name": "agentId",
          "type": "uint256"
        },
        {
          "indexed": false,
          "internalType": "string",
          "name": "oldCID",
          "type": "string"
        },
        {
          "indexed": false,
          "internalType": "string",
          "name": "newCID",
          "type": "string"
        }
      ],
      "name": "ProfileUpdated",
      "type": "event"
    },
    {
      "anonymous": false,
      "inputs": [
        {
          "indexed": true,
          "internalType": "uint256",
          "name": "agentId",
          "type": "uint256"
        },
        {
          "indexed": true,
          "internalType": "bytes32",
          "name": "skillId",
          "type": "bytes32"
        }
      ],
      "name": "SkillAdded",
      "type": "event"
    },
    {
      "anonymous": false,
      "inputs": [
        {
          "indexed": true,
          "internalType": "uint256",
          "name": "agentId",
          "type": "uint256"
        },
        {
          "indexed": true,
          "internalType": "bytes32",
          "name": "skillId",
          "type": "bytes32"
        }
      ],
      "name": "SkillRemoved",
      "type": "event"
    },
    {
      "anonymous": false,
      "inputs": [
        {
          "indexed": true,
          "internalType": "uint256",
          "name": "agentId",
          "type": "uint256"
        },
        {
          "indexed": true,
          "internalType": "bytes32",
          "name": "skillId",
          "type": "bytes32"
        },
        {
          "indexed": false,
          "internalType": "uint256",
          "name": "newScore",
          "type": "uint256"
        },
        {
          "indexed": false,
          "internalType": "uint256",
          "name": "skillJobsCompleted",
          "type": "uint256"
        },
        {
          "indexed": false,
          "internalType": "uint256",
          "name": "skillJobsAttempted",
          "type": "uint256"
        }
      ],
      "name": "SkillReputationUpdated",
      "type": "event"
    },
    {
      "anonymous": false,
      "inputs": [
        {
          "indexed": true,
          "internalType": "address",
          "name": "from",
          "type": "address"
        },
        {
          "indexed": true,
          "internalType": "address",
          "name": "to",
          "type": "address"
        },
        {
          "indexed": true,
          "internalType": "uint256",
          "name": "tokenId",
          "type": "uint256"
        }
      ],
      "name": "Transfer",
      "type": "event"
    },
    {
      "inputs": [],
      "name": "MAX_INITIAL_SKILLS",
      "outputs": [
        {
          "internalType": "uint256",
          "name": "",
          "type": "uint256"
        }
      ],
      "stateMutability": "view",
      "type": "function"
    },
    {
      "inputs": [],
      "name": "MAX_SKILLS_PER_AGENT",
      "outputs": [
        {
          "internalType": "uint256",
          "name": "",
          "type": "uint256"
        }
      ],
      "stateMutability": "view",
      "type": "function"
    },
    {
      "inputs": [
        {
          "internalType": "address",
          "name": "escrow",
          "type": "address"
        }
      ],
      "name": "addEscrowContract",
      "outputs": [],
      "stateMutability": "nonpayable",
      "type": "function"
    },
    {
      "inputs": [
        {
          "internalType": "uint256",
          "name": "agentId",
          "type": "uint256"
        },
        {
          "internalType": "bytes32",
          "name": "skillId",
          "type": "bytes32"
        }
      ],
      "name": "addSkill",
      "outputs": [],
      "stateMutability": "nonpayable",
      "type": "function"
    },
    {
      "inputs": [
        {
          "internalType": "uint256",
          "name": "",
          "type": "uint256"
        },
        {
          "internalType": "bytes32",
          "name": "",
          "type": "bytes32"
        }
      ],
      "name": "agentHasSkill",
      "outputs": [
        {
          "internalType": "bool",
          "name": "",
          "type": "bool"
        }
      ],
      "stateMutability": "view",
      "type": "function"
    },
    {
      "inputs": [
        {
          "internalType": "uint256",
          "name": "",
          "type": "uint256"
        },
        {
          "internalType": "uint256",
          "name": "",
          "type": "uint256"
        }
      ],
      "name": "agentSkillAtIndex",
      "outputs": [
        {
          "internalType": "bytes32",
          "name": "",
          "type": "bytes32"
        }
      ],
      "stateMutability": "view",
      "type": "function"
    },
    {
      "inputs": [
        {
          "internalType": "uint256",
          "name": "",
          "type": "uint256"
        }
      ],
      "name": "agentSkillCount",
      "outputs": [
        {
          "internalType": "uint256",
          "name": "",
          "type": "uint256"
        }
      ],
      "stateMutability": "view",
      "type": "function"
    },
    {
      "inputs": [
        {
          "internalType": "uint256",
          "name": "",
          "type": "uint256"
        }
      ],
      "name": "agents",
      "outputs": [
        {
          "internalType": "address",
          "name": "owner",
          "type": "address"
        },
        {
          "internalType": "address",
          "name": "agentWallet",
          "type": "address"
        },
        {
          "internalType": "bytes",
          "name": "eciesPublicKey",
          "type": "bytes"
        },
        {
          "internalType": "bytes32",
          "name": "capabilityHash",
          "type": "bytes32"
        },
        {
          "internalType": "string",
          "name": "capabilityCID",
          "type": "string"
        },
        {
          "internalType": "string",
          "name": "profileCID",
          "type": "string"
        },
        {
          "internalType": "uint256",
          "name": "overallScore",
          "type": "uint256"
        },
        {
          "internalType": "uint256",
          "name": "totalJobsCompleted",
          "type": "uint256"
        },
        {
          "internalType": "uint256",
          "name": "totalJobsAttempted",
          "type": "uint256"
        },
        {
          "internalType": "uint256",
          "name": "totalEarningsWei",
          "type": "uint256"
        },
        {
          "internalType": "uint256",
          "name": "defaultRate",
          "type": "uint256"
        },
        {
          "internalType": "uint256",
          "name": "createdAt",
          "type": "uint256"
        },
        {
          "internalType": "bool",
          "name": "isActive",
          "type": "bool"
        }
      ],
      "stateMutability": "view",
      "type": "function"
    },
    {
      "inputs": [
        {
          "internalType": "address",
          "name": "to",
          "type": "address"
        },
        {
          "internalType": "uint256",
          "name": "tokenId",
          "type": "uint256"
        }
      ],
      "name": "approve",
      "outputs": [],
      "stateMutability": "nonpayable",
      "type": "function"
    },
    {
      "inputs": [
        {
          "internalType": "address",
          "name": "",
          "type": "address"
        }
      ],
      "name": "authorizedEscrows",
      "outputs": [
        {
          "internalType": "bool",
          "name": "",
          "type": "bool"
        }
      ],
      "stateMutability": "view",
      "type": "function"
    },
    {
      "inputs": [
        {
          "internalType": "address",
          "name": "owner",
          "type": "address"
        }
      ],
      "name": "balanceOf",
      "outputs": [
        {
          "internalType": "uint256",
          "name": "",
          "type": "uint256"
        }
      ],
      "stateMutability": "view",
      "type": "function"
    },
    {
      "inputs": [
        {
          "internalType": "uint256",
          "name": "agentId",
          "type": "uint256"
        }
      ],
      "name": "getAgentProfile",
      "outputs": [
        {
          "components": [
            {
              "internalType": "address",
              "name": "owner",
              "type": "address"
            },
            {
              "internalType": "address",
              "name": "agentWallet",
              "type": "address"
            },
            {
              "internalType": "bytes",
              "name": "eciesPublicKey",
              "type": "bytes"
            },
            {
              "internalType": "bytes32",
              "name": "capabilityHash",
              "type": "bytes32"
            },
            {
              "internalType": "string",
              "name": "capabilityCID",
              "type": "string"
            },
            {
              "internalType": "string",
              "name": "profileCID",
              "type": "string"
            },
            {
              "internalType": "uint256",
              "name": "overallScore",
              "type": "uint256"
            },
            {
              "internalType": "uint256",
              "name": "totalJobsCompleted",
              "type": "uint256"
            },
            {
              "internalType": "uint256",
              "name": "totalJobsAttempted",
              "type": "uint256"
            },
            {
              "internalType": "uint256",
              "name": "totalEarningsWei",
              "type": "uint256"
            },
            {
              "internalType": "uint256",
              "name": "defaultRate",
              "type": "uint256"
            },
            {
              "internalType": "uint256",
              "name": "createdAt",
              "type": "uint256"
            },
            {
              "internalType": "bool",
              "name": "isActive",
              "type": "bool"
            }
          ],
          "internalType": "struct AgentRegistry.AgentProfile",
          "name": "",
          "type": "tuple"
        }
      ],
      "stateMutability": "view",
      "type": "function"
    },
    {
      "inputs": [
        {
          "internalType": "uint256",
          "name": "agentId",
          "type": "uint256"
        }
      ],
      "name": "getAgentSkills",
      "outputs": [
        {
          "internalType": "bytes32[]",
          "name": "",
          "type": "bytes32[]"
        }
      ],
      "stateMutability": "view",
      "type": "function"
    },
    {
      "inputs": [
        {
          "internalType": "uint256",
          "name": "tokenId",
          "type": "uint256"
        }
      ],
      "name": "getApproved",
      "outputs": [
        {
          "internalType": "address",
          "name": "",
          "type": "address"
        }
      ],
      "stateMutability": "view",
      "type": "function"
    },
    {
      "inputs": [
        {
          "internalType": "address",
          "name": "owner",
          "type": "address"
        }
      ],
      "name": "getOwnerAgents",
      "outputs": [
        {
          "internalType": "uint256[]",
          "name": "",
          "type": "uint256[]"
        }
      ],
      "stateMutability": "view",
      "type": "function"
    },
    {
      "inputs": [
        {
          "internalType": "uint256",
          "name": "agentId",
          "type": "uint256"
        },
        {
          "internalType": "bytes32",
          "name": "skillId",
          "type": "bytes32"
        }
      ],
      "name": "getSkillReputation",
      "outputs": [
        {
          "components": [
            {
              "internalType": "uint256",
              "name": "score",
              "type": "uint256"
            },
            {
              "internalType": "uint256",
              "name": "jobsCompleted",
              "type": "uint256"
            },
            {
              "internalType": "uint256",
              "name": "jobsAttempted",
              "type": "uint256"
            },
            {
              "internalType": "uint256",
              "name": "totalEarningsWei",
              "type": "uint256"
            },
            {
              "internalType": "uint256",
              "name": "lastUpdated",
              "type": "uint256"
            }
          ],
          "internalType": "struct AgentRegistry.SkillReputation",
          "name": "",
          "type": "tuple"
        }
      ],
      "stateMutability": "view",
      "type": "function"
    },
    {
      "inputs": [
        {
          "internalType": "uint256",
          "name": "agentId",
          "type": "uint256"
        },
        {
          "internalType": "bytes32",
          "name": "skillId",
          "type": "bytes32"
        }
      ],
      "name": "hasSkill",
      "outputs": [
        {
          "internalType": "bool",
          "name": "",
          "type": "bool"
        }
      ],
      "stateMutability": "view",
      "type": "function"
    },
    {
      "inputs": [
        {
          "internalType": "address",
          "name": "owner",
          "type": "address"
        },
        {
          "internalType": "address",
          "name": "operator",
          "type": "address"
        }
      ],
      "name": "isApprovedForAll",
      "outputs": [
        {
          "internalType": "bool",
          "name": "",
          "type": "bool"
        }
      ],
      "stateMutability": "view",
      "type": "function"
    },
    {
      "inputs": [
        {
          "internalType": "uint256",
          "name": "defaultRate",
          "type": "uint256"
        },
        {
          "internalType": "string",
          "name": "profileCID",
          "type": "string"
        },
        {
          "internalType": "string",
          "name": "capabilityCID",
          "type": "string"
        },
        {
          "internalType": "bytes32[]",
          "name": "skillIds",
          "type": "bytes32[]"
        },
        {
          "internalType": "address",
          "name": "agentWallet",
          "type": "address"
        },
        {
          "internalType": "bytes",
          "name": "eciesPublicKey",
          "type": "bytes"
        }
      ],
      "name": "mintAgent",
      "outputs": [
        {
          "internalType": "uint256",
          "name": "agentId",
          "type": "uint256"
        }
      ],
      "stateMutability": "nonpayable",
      "type": "function"
    },
    {
      "inputs": [],
      "name": "name",
      "outputs": [
        {
          "internalType": "string",
          "name": "",
          "type": "string"
        }
      ],
      "stateMutability": "view",
      "type": "function"
    },
    {
      "inputs": [],
      "name": "owner",
      "outputs": [
        {
          "internalType": "address",
          "name": "",
          "type": "address"
        }
      ],
      "stateMutability": "view",
      "type": "function"
    },
    {
      "inputs": [
        {
          "internalType": "uint256",
          "name": "tokenId",
          "type": "uint256"
        }
      ],
      "name": "ownerOf",
      "outputs": [
        {
          "internalType": "address",
          "name": "",
          "type": "address"
        }
      ],
      "stateMutability": "view",
      "type": "function"
    },
    {
      "inputs": [
        {
          "internalType": "address",
          "name": "",
          "type": "address"
        },
        {
          "internalType": "uint256",
          "name": "",
          "type": "uint256"
        }
      ],
      "name": "ownerToAgentIds",
      "outputs": [
        {
          "internalType": "uint256",
          "name": "",
          "type": "uint256"
        }
      ],
      "stateMutability": "view",
      "type": "function"
    },
    {
      "inputs": [
        {
          "internalType": "uint256",
          "name": "agentId",
          "type": "uint256"
        },
        {
          "internalType": "uint256",
          "name": "earningsWei",
          "type": "uint256"
        },
        {
          "internalType": "bool",
          "name": "jobCompleted",
          "type": "bool"
        },
        {
          "internalType": "bytes32",
          "name": "skillId",
          "type": "bytes32"
        }
      ],
      "name": "recordJobResult",
      "outputs": [],
      "stateMutability": "nonpayable",
      "type": "function"
    },
    {
      "inputs": [
        {
          "internalType": "address",
          "name": "escrow",
          "type": "address"
        }
      ],
      "name": "removeEscrowContract",
      "outputs": [],
      "stateMutability": "nonpayable",
      "type": "function"
    },
    {
      "inputs": [
        {
          "internalType": "uint256",
          "name": "agentId",
          "type": "uint256"
        },
        {
          "internalType": "bytes32",
          "name": "skillId",
          "type": "bytes32"
        }
      ],
      "name": "removeSkill",
      "outputs": [],
      "stateMutability": "nonpayable",
      "type": "function"
    },
    {
      "inputs": [],
      "name": "renounceOwnership",
      "outputs": [],
      "stateMutability": "nonpayable",
      "type": "function"
    },
    {
      "inputs": [
        {
          "internalType": "address",
          "name": "from",
          "type": "address"
        },
        {
          "internalType": "address",
          "name": "to",
          "type": "address"
        },
        {
          "internalType": "uint256",
          "name": "tokenId",
          "type": "uint256"
        }
      ],
      "name": "safeTransferFrom",
      "outputs": [],
      "stateMutability": "nonpayable",
      "type": "function"
    },
    {
      "inputs": [
        {
          "internalType": "address",
          "name": "from",
          "type": "address"
        },
        {
          "internalType": "address",
          "name": "to",
          "type": "address"
        },
        {
          "internalType": "uint256",
          "name": "tokenId",
          "type": "uint256"
        },
        {
          "internalType": "bytes",
          "name": "data",
          "type": "bytes"
        }
      ],
      "name": "safeTransferFrom",
      "outputs": [],
      "stateMutability": "nonpayable",
      "type": "function"
    },
    {
      "inputs": [
        {
          "internalType": "address",
          "name": "operator",
          "type": "address"
        },
        {
          "internalType": "bool",
          "name": "approved",
          "type": "bool"
        }
      ],
      "name": "setApprovalForAll",
      "outputs": [],
      "stateMutability": "nonpayable",
      "type": "function"
    },
    {
      "inputs": [
        {
          "internalType": "uint256",
          "name": "",
          "type": "uint256"
        },
        {
          "internalType": "bytes32",
          "name": "",
          "type": "bytes32"
        }
      ],
      "name": "skillReputations",
      "outputs": [
        {
          "internalType": "uint256",
          "name": "score",
          "type": "uint256"
        },
        {
          "internalType": "uint256",
          "name": "jobsCompleted",
          "type": "uint256"
        },
        {
          "internalType": "uint256",
          "name": "jobsAttempted",
          "type": "uint256"
        },
        {
          "internalType": "uint256",
          "name": "totalEarningsWei",
          "type": "uint256"
        },
        {
          "internalType": "uint256",
          "name": "lastUpdated",
          "type": "uint256"
        }
      ],
      "stateMutability": "view",
      "type": "function"
    },
    {
      "inputs": [
        {
          "internalType": "bytes4",
          "name": "interfaceId",
          "type": "bytes4"
        }
      ],
      "name": "supportsInterface",
      "outputs": [
        {
          "internalType": "bool",
          "name": "",
          "type": "bool"
        }
      ],
      "stateMutability": "view",
      "type": "function"
    },
    {
      "inputs": [],
      "name": "symbol",
      "outputs": [
        {
          "internalType": "string",
          "name": "",
          "type": "string"
        }
      ],
      "stateMutability": "view",
      "type": "function"
    },
    {
      "inputs": [
        {
          "internalType": "uint256",
          "name": "agentId",
          "type": "uint256"
        }
      ],
      "name": "toggleActive",
      "outputs": [],
      "stateMutability": "nonpayable",
      "type": "function"
    },
    {
      "inputs": [
        {
          "internalType": "uint256",
          "name": "tokenId",
          "type": "uint256"
        }
      ],
      "name": "tokenURI",
      "outputs": [
        {
          "internalType": "string",
          "name": "",
          "type": "string"
        }
      ],
      "stateMutability": "view",
      "type": "function"
    },
    {
      "inputs": [],
      "name": "totalAgents",
      "outputs": [
        {
          "internalType": "uint256",
          "name": "",
          "type": "uint256"
        }
      ],
      "stateMutability": "view",
      "type": "function"
    },
    {
      "inputs": [
        {
          "internalType": "address",
          "name": "from",
          "type": "address"
        },
        {
          "internalType": "address",
          "name": "to",
          "type": "address"
        },
        {
          "internalType": "uint256",
          "name": "tokenId",
          "type": "uint256"
        }
      ],
      "name": "transferFrom",
      "outputs": [],
      "stateMutability": "nonpayable",
      "type": "function"
    },
    {
      "inputs": [
        {
          "internalType": "address",
          "name": "newOwner",
          "type": "address"
        }
      ],
      "name": "transferOwnership",
      "outputs": [],
      "stateMutability": "nonpayable",
      "type": "function"
    },
    {
      "inputs": [
        {
          "internalType": "uint256",
          "name": "agentId",
          "type": "uint256"
        },
        {
          "internalType": "string",
          "name": "newCapabilityCID",
          "type": "string"
        },
        {
          "internalType": "bytes32[]",
          "name": "addSkillIds",
          "type": "bytes32[]"
        },
        {
          "internalType": "bytes32[]",
          "name": "removeSkillIds",
          "type": "bytes32[]"
        }
      ],
      "name": "updateCapabilities",
      "outputs": [],
      "stateMutability": "nonpayable",
      "type": "function"
    },
    {
      "inputs": [
        {
          "internalType": "uint256",
          "name": "agentId",
          "type": "uint256"
        },
        {
          "internalType": "string",
          "name": "newCID",
          "type": "string"
        }
      ],
      "name": "updateProfileCID",
      "outputs": [],
      "stateMutability": "nonpayable",
      "type": "function"
    }
  ],
  "bytecode": "0x6080346200035c576001600160401b039060408181018381118382101762000346578152600d82526020916c11195052481059d95b9d081251609a1b83820152815193828501858110828211176200034657835260058552641051d1539560da1b84860152815181811162000346576000948554916001948584811c941680156200033b575b8385101462000327578190601f94858111620002d4575b5083908583116001146200027057899262000264575b5050600019600383901b1c191690851b1786555b8651928311620002505783548481811c9116801562000245575b828210146200023157828111620001e9575b50809183116001146200018257508495829394959262000176575b5050600019600383901b1c191690821b1790555b60068054336001600160a01b03198216811790925591519290916001600160a01b0316907f8be0079c531659141344cd1fd0a4f28419497f9722a3daafe3b4186f6b6457e09080a36132329081620003628239f35b0151905038806200010d565b90601f198316968487528287209287905b898210620001d1575050838596979810620001b7575b505050811b01905562000121565b015160001960f88460031b161c19169055388080620001a9565b80878596829496860151815501950193019062000193565b8487528187208380860160051c82019284871062000227575b0160051c019085905b8281106200021b575050620000f2565b8881550185906200020b565b9250819262000202565b634e487b7160e01b87526022600452602487fd5b90607f1690620000e0565b634e487b7160e01b86526041600452602486fd5b015190503880620000b2565b898052848a208894509190601f1984168b5b87828210620002bd5750508411620002a3575b505050811b018655620000c6565b015160001960f88460031b161c1916905538808062000295565b8385015186558b9790950194938401930162000282565b9091508880528389208580850160051c8201928686106200031d575b918991869594930160051c01915b8281106200030e5750506200009c565b8b8155859450899101620002fe565b92508192620002f0565b634e487b7160e01b88526022600452602488fd5b93607f169362000085565b634e487b7160e01b600052604160045260246000fd5b600080fdfe608080604052600436101561001357600080fd5b60003560e01c90816301ffc9a71461264e5750806302e38b8a146125f6578063056951ac1461253b57806306fdde0314612498578063073cf1fa146122c8578063081812fc1461247a578063095ea7b3146123005780630b1e9431146122c857806323b872dd146122a4578063334029d6146122455780634050c6b51461221957806342842e0e146121e65780634d10cab2146121ac578063513856c8146120745780636202d11414611eab5780636352211e14611e7b5780636c19597314611e0f57806370a0823114611d78578063715018a614611d1b5780637585840a14611c67578063844e976a14611c2f5780638da5cb5b14611c0657806395d89b4114611b27578063a22cb46514611a4c578063b88d4fde146119ca578063c0ecad4a1461198b578063c47e047e1461189b578063c50537121461187d578063c528e3521461143a578063c72da86f146111c0578063c87b56dd1461114f578063cbd8e12f146110bd578063cd97b7bc14610efc578063d03069c714610681578063d1bca73d14610665578063d589621e146105b1578063dc3d0acf14610595578063e985e9c51461053f578063f098a7ae146102a05763f2fde38b146101d757600080fd5b3461029b57602036600319011261029b576101f06126b9565b6101f861297a565b6001600160a01b0390811690811561024757600654826001600160601b0360a01b821617600655167f8be0079c531659141344cd1fd0a4f28419497f9722a3daafe3b4186f6b6457e0600080a3005b60405162461bcd60e51b815260206004820152602660248201527f4f776e61626c653a206e6577206f776e657220697320746865207a65726f206160448201526564647265737360d01b6064820152608490fd5b600080fd5b3461029b57602036600319011261029b5760043560006101806040516102c581612858565b8281528260208201526060604082015282606082015260606080820152606060a08201528260c08201528260e082015282610100820152826101208201528261014082015282610160820152015261033281600052600260205260018060a01b0360406000205416151590565b156104ee576000526008602052604060002060ff600c6040519261035584612858565b80546001600160a01b039081168552600182015416602085015260405161038a8161038381600286016127c2565b03826128aa565b6040850152600381015460608501526040516103ad8161038381600486016127c2565b60808501526040516103c68161038381600586016127c2565b60a0850152600681015460c0850152600781015460e085015260088101546101008501526009810154610120850152600a810154610140850152600b810154610160850152015416151561018082015260405180916020825260018060a01b03815116602083015260018060a01b03602082015116604083015261018061049c61046160408401516101a060608701526101c08601906126fd565b60608401516080860152610487608085015191601f1992838883030160a08901526126fd565b9060a0850151908683030160c08701526126fd565b9160c081015160e085015260e081015161010085015261010081015161012085015261012081015161014085015261014081015161016085015261016081015182850152015115156101a08301520390f35b60405162461bcd60e51b815260206004820152602360248201527f4167656e7452656769737472793a206167656e7420646f6573206e6f742065786044820152621a5cdd60ea1b6064820152608490fd5b3461029b57604036600319011261029b576105586126b9565b6105606126cf565b9060018060a01b03809116600052600560205260406000209116600052602052602060ff604060002054166040519015158152f35b3461029b57600036600319011261029b57602060405160148152f35b3461029b576105bf3661273d565b90600060806040516105d081612874565b8281528260208201528260408201528260608201520152600052600a60205260406000209060005260205260a0604060002060405161060e81612874565b81549182825260018101546020830190815260028201549060408401918252608060046003850154946060870195865201549401938452604051948552516020850152516040840152516060830152516080820152f35b3461029b57600036600319011261029b57602060405160328152f35b3461029b5760c036600319011261029b576024356001600160401b03811161029b576106b19036906004016128cb565b6044356001600160401b03811161029b576106d09036906004016128cb565b906064356001600160401b03811161029b576106f090369060040161294a565b608435956001600160a01b038716870361029b5760a4356001600160401b03811161029b576107239036906004016128cb565b916001600160a01b03891615610eb7576001600160a01b0389163314610e58578715610e13578615610dc35760148411610d6f5760016007540197886007556040519261076f8461288f565b600084523315610d2b576108386108336108ac956107cf6107ac8e6107b26107ac82600052600260205260018060a01b0360406000205416151590565b15612f8d565b6000908152600260205260409020546001600160a01b0316151590565b3360005260036020526040600020600181540190558c60005260026020526040600020336001600160601b0360a01b8254161790558c3360007fddf252ad1be2c89b69c2b068fc378daa952ba7f163c4a11628f55a4df523b3ef8180a48c33612d34565b612b37565b61088b888a610861602060405183819483830196873781016000838201520380845201826128aa565b519020916040519661087288612858565b3388526001600160a01b038e1660208901523691612913565b604086015260608501526108a0368989612913565b60808501523691612913565b60a0820152611f4060c0820152600060e08201526000610100820152600061012082015260043561014082015242610160820152600161018082015285600052600860205260406000209060018060a01b038151166001600160601b0360a01b8354161782556001820160018060a01b036020830151166001600160601b0360a01b82541617905560408101518051906001600160401b038211610b735781906109668261095d6002880154612788565b60028801612ef9565b602090601f8311600114610cb957600092610cae575b50508160011b916000199060031b1c19161760028301555b6060810151600383015560808101518051906001600160401b038211610b735781906109d0826109c76004880154612788565b60048801612ef9565b602090601f8311600114610c3c57600092610c31575b50508160011b916000199060031b1c19161760048301555b60a08101518051906001600160401b038211610b7357610a2e82610a256005870154612788565b60058701612ef9565b602090601f8311600114610bb7579282600c9361018093610ac19796600092610bac575b50508160011b916000199060031b1c19161760058501555b60c0810151600685015560e0810151600785015561010081015160088501556101208101516009850155610140810151600a850155610160810151600b8501550151151591019060ff801983541691151516179055565b60005b818110610b895750505033600052600960205260406000209081549068010000000000000000821015610b7357602095610b2683879560017fc6bbcb2fb6e9bd332b4e8683c2145b22748eaf6d58ca386318dfb84bfe906795960181556126e5565b81549060031b9086821b91600019901b1916179055610b68604051928392600435845260018060a01b0316898401526060604084015233966060840191612f6c565b0390a3604051908152f35b634e487b7160e01b600052604160045260246000fd5b80610ba2610b9b610ba7938587612f5c565b3588613095565b612f4d565b610ac4565b015190508d80610a52565b906005850160005260206000209160005b601f1985168110610c1957508361018093610ac1979693600193600c97601f19811610610c00575b505050811b016005850155610a6a565b015160001960f88460031b161c191690558d8080610bf0565b91926020600181928685015181550194019201610bc8565b015190508a806109e6565b9250600485016000526020600020906000935b601f1984168510610c93576001945083601f19811610610c7a575b505050811b0160048301556109fe565b015160001960f88460031b161c191690558a8080610c6a565b81810151835560209485019460019093019290910190610c4f565b015190508a8061097c565b9250600285016000526020600020906000935b601f1984168510610d10576001945083601f19811610610cf7575b505050811b016002830155610994565b015160001960f88460031b161c191690558a8080610ce7565b81810151835560209485019460019093019290910190610ccc565b606460405162461bcd60e51b815260206004820152602060248201527f4552433732313a206d696e7420746f20746865207a65726f20616464726573736044820152fd5b60405162461bcd60e51b815260206004820152602660248201527f4167656e7452656769737472793a20746f6f206d616e7920696e697469616c20604482015265736b696c6c7360d01b6064820152608490fd5b60405162461bcd60e51b815260206004820152602260248201527f4167656e7452656769737472793a20656d707479206361706162696c69747943604482015261125160f21b6064820152608490fd5b60405162461bcd60e51b815260206004820152601f60248201527f4167656e7452656769737472793a20656d7074792070726f66696c65434944006044820152606490fd5b60405162461bcd60e51b815260206004820152603160248201527f4167656e7452656769737472793a206167656e7457616c6c6574206d757374206044820152703234b33332b910333937b69037bbb732b960791b6064820152608490fd5b60405162461bcd60e51b815260206004820152601f60248201527f4167656e7452656769737472793a207a65726f206167656e7457616c6c6574006044820152606490fd5b3461029b57610f0a3661273d565b9080600052602060088152610f2d60018060a01b03604060002054163314612fe6565b81600052600d8152604060002083600052815260ff60406000205416156110795781600052600b815260406000205490600e81526040600020846000528152604060002054906000198301928311611063578183600b9303611011575b5083600052600c815260406000208360005281526000604081205583600052600e815260406000208560005281526000604081205583600052600d81526040600020856000528152604060002060ff19815416905583600052526040600020557f6125130d8d29f33e0a349985816c9b044ae189a43a26551ee732926219f953fd600080a3005b84600052600c8252604060002084600052825260406000205485600052600c835260406000208260005283528060406000205585600052600e8352604060002090600052825260406000205585610f8a565b634e487b7160e01b600052601160045260246000fd5b6064906040519062461bcd60e51b82526004820152601e60248201527f4167656e7452656769737472793a20736b696c6c206e6f7420666f756e6400006044820152fd5b3461029b57602036600319011261029b576004358060005260086020526110f260018060a01b03604060002054163314612fe6565b8060005260086020527fc7b4da35ef4d9b00ecab660cf997a3a95c58d9318808d2db76d958533af3d055602060ff600c6040600020016111428282541615829060ff801983541691151516179055565b54166040519015158152a2005b3461029b57602036600319011261029b57600435600090815260026020526040902054611186906001600160a01b031615156129d2565b60006040516111948161288f565b526111bc6040516111a48161288f565b600081526040519182916020835260208301906126fd565b0390f35b3461029b57608036600319011261029b57604435600435602435821515830361029b576064359233600052600f60205260ff60406000205416156113ea5782600052600860205282604060002060088101908361121d8354612f4d565b8093556113c4575b8161136e575b60068101546007909101546040805192835260208301919091528101919091527f0e9287e5ead0fd5f753713a4769ad3879de0379bcf61d9e2124f714b1733fb1090606090a28361127857005b82600052600a60205260406000208460005260205260406000209160028301916112a28354612f4d565b809355611347575b50806112f9575b42600483015581546001909201546040805193845260208401919091528201527fc3cf0e1483f3c827e09b4052ad19baea470fc8574cb3a915d13f679ffc804adb90606090a3005b600182015491612710928381029381850414901517156110635761133e827fc3cf0e1483f3c827e09b4052ad19baea470fc8574cb3a915d13f679ffc804adb94612ed9565b815591506112b1565b600183016113558154612f4d565b905561136660038401918254612fd9565b9055846112aa565b9150600782015490612710918281029281840414901517156110635785926113b7827f0e9287e5ead0fd5f753713a4769ad3879de0379bcf61d9e2124f714b1733fb1094612ed9565b600682015590915061122b565b600781016113d28154612f4d565b9055600981016113e3868254612fd9565b9055611225565b60405162461bcd60e51b815260206004820152602260248201527f4167656e7452656769737472793a20756e617574686f72697a656420657363726044820152616f7760f01b6064820152608490fd5b3461029b57608036600319011261029b576001600160401b0360243581811161029b5761146b9036906004016128cb565b60449291923582811161029b5761148690369060040161294a565b93909260643581811161029b576114a190369060040161294a565b93909260043560005260086020526114c760018060a01b03604060002054163314612fe6565b6114d2821515613032565b600435600052600b6020526114ec60406000205488612fd9565b85810390811161106357603210611838576040516020810190838383376115236020828681016000838201520380845201826128aa565b5190209260043560005260086020526004604060002001908311610b73576115558361154f8354612788565b83612ef9565b6000601f84116001146117a957916115ce91847f59e1c0e00c3e5b2d2b20f7697553bd2e96262ed1203889d9d0c4804e6d33a050959460009161179e575b508460011b906000198660031b1c19161790555b60043560005260086020528460036040600020015560405192604084526040840191612f6c565b92602082015280600435930390a260005b8281106116155750505060005b8281106115f557005b80610ba2611607611610938686612f5c565b35600435613095565b6115ec565b600435600052600d90816020526040600020611632828686612f5c565b3560005260205260ff60406000205416611656575b6116519150612f4d565b6115df565b600435600052600b602052604060002054600e9283602052604060002061167e848888612f5c565b356000526020526040600020549360001983019283116110635784836116519603611761575b50600435600052600c6020526040600020836000526020526000604081205560043560005260205260406000206116dc848888612f5c565b35600052602052600060408120556004356000526020526040600020611703838787612f5c565b35600052602052604060002060ff198154169055600435600052600b602052604060002055611733818585612f5c565b356004357f6125130d8d29f33e0a349985816c9b044ae189a43a26551ee732926219f953fd600080a3611647565b6004356000818152600c602090815260408083208884528252808320548584528184208190559383528582528083209383529290522055896116a4565b90508201358b611593565b8160005260206000209060005b601f19861681106118205750918493916115ce937f59e1c0e00c3e5b2d2b20f7697553bd2e96262ed1203889d9d0c4804e6d33a05096601f19811610611806575b5050600184811b0190556115a7565b830135600019600387901b60f8161c191690558a806117f7565b909160206001819285880135815501930191016117b6565b60405162461bcd60e51b815260206004820152601e60248201527f4167656e7452656769737472793a20746f6f206d616e7920736b696c6c7300006044820152606490fd5b3461029b57600036600319011261029b576020600754604051908152f35b3461029b5760208060031936011261029b5760043580600052600b82526040600020546118c78161307e565b906118d560405192836128aa565b8082526118e18161307e565b8285019390601f190136853760005b82811061193b5750505090604051928392818401908285525180915260408401929160005b82811061192457505050500390f35b835185528695509381019392810192600101611915565b81600052600c865260406000208160005286526040600020549084518110156119755761197091878260051b87010152612f4d565b6118f0565b634e487b7160e01b600052603260045260246000fd5b3461029b57602036600319011261029b576001600160a01b036119ac6126b9565b16600052600f602052602060ff604060002054166040519015158152f35b3461029b57608036600319011261029b576119e36126b9565b6119eb6126cf565b90606435906044356001600160401b03831161029b573660238401121561029b57611a4a93611a27610833943690602481600401359101612913565b92611a3a611a358433612b5b565b612a82565b611a45838383612c23565b612e52565b005b3461029b57604036600319011261029b57611a656126b9565b602435908115159081830361029b576001600160a01b031691338314611ae257611ab49033600052600560205260406000208460005260205260406000209060ff801983541691151516179055565b6040519081527f17307eab39ab6107e8899845ad3d59bd9653f200f220920489ca2b5937696c3160203392a3005b60405162461bcd60e51b815260206004820152601960248201527f4552433732313a20617070726f766520746f2063616c6c6572000000000000006044820152606490fd5b3461029b57600036600319011261029b5760405160006001805490611b4b82612788565b80855291818116908115611bdf5750600114611b86575b6111bc84611b72818603826128aa565b6040519182916020835260208301906126fd565b600081815292507fb10e2d527612073b26eecdfd717e6a320cf44b4afac2b0732d9fcbe2b7fa0cf65b828410611bc7575050508101602001611b7282611b62565b80546020858701810191909152909301928101611baf565b60ff191660208087019190915292151560051b85019092019250611b729150839050611b62565b3461029b57600036600319011261029b576006546040516001600160a01b039091168152602090f35b3461029b57611a4a611c403661273d565b90806000526008602052611c6260018060a01b03604060002054163314612fe6565b613095565b3461029b5760208060031936011261029b576001600160a01b03611c896126b9565b1660005260098152604060002060405190818382549182815201908192600052846000209060005b86828210611d07578686611cc7828803836128aa565b604051928392818401908285525180915260408401929160005b828110611cf057505050500390f35b835185528695509381019392810192600101611ce1565b835485529093019260019283019201611cb1565b3461029b57600036600319011261029b57611d3461297a565b600680546001600160a01b031981169091556000906001600160a01b03167f8be0079c531659141344cd1fd0a4f28419497f9722a3daafe3b4186f6b6457e08280a3005b3461029b57602036600319011261029b576001600160a01b03611d996126b9565b168015611db85760005260036020526020604060002054604051908152f35b60405162461bcd60e51b815260206004820152602960248201527f4552433732313a2061646472657373207a65726f206973206e6f7420612076616044820152683634b21037bbb732b960b91b6064820152608490fd5b3461029b57602036600319011261029b57611e286126b9565b611e3061297a565b6001600160a01b03166000818152600f60209081526040808320805460ff19169055519182527fd050846fbbc71ea3fa1c3cde22c675780769aaa30c5152a411e2e1086ce931f891a2005b3461029b57602036600319011261029b576020611e99600435612a1e565b6040516001600160a01b039091168152f35b3461029b57604036600319011261029b576004356024356001600160401b0380821161029b57611ee2611f309236906004016128cb565b908460005260209260088452611f0660018060a01b03604060002054163314612fe6565b611f11831515613032565b8560005260088452611f376005604060002001604051968780926127c2565b03866128aa565b85600052600884526005604060002001908311610b7357611f5c8361154f8354612788565b6000601f8411600114611fe45792611fd492611fc79592827fa1a4f6f1cbe12335c62a3b30dc6aa84aa9e5a439b619201d70214c119bd9d09b9896600091611fd9575b508360011b906000198560031b1c19161790555b6040519586956040875260408701906126fd565b9285840390860152612f6c565b0390a2005b90508201358a611f9f565b601f1984169082600052856000209160005b81811061205d5750928592611fd495927fa1a4f6f1cbe12335c62a3b30dc6aa84aa9e5a439b619201d70214c119bd9d09b9997611fc7999610612043575b5050600183811b019055611fb3565b830135600019600386901b60f8161c191690558980612034565b919287600181928689013581550194019201611ff6565b3461029b57602036600319011261029b5760043560005260086020526040600020600160a01b60019003808254169060018301541691604051808060028401906120bd916127c2565b036120c890826128aa565b60038201546040519290836120e081600485016127c2565b036120eb90856128aa565b60405193846120fd81600586016127c2565b0361210890866128aa565b6006830154946007840154600885015491600986015493600a87015495600b88015497600c015460ff16986040519c8d9c8d5260208d01528b6101a06040819201528c01612155916126fd565b9060608c01528a810360808c015261216c916126fd565b89810360a08b015261217d916126fd565b9660c089015260e088015261010087015261012086015261014085015261016084015215156101808301520390f35b3461029b57604036600319011261029b57600435600052600c60205260406000206024356000526020526020604060002054604051908152f35b3461029b57611a4a6108336121fa36612753565b90604051926122088461288f565b60008452611a3a611a358433612b5b565b3461029b57602036600319011261029b57600435600052600b6020526020604060002054604051908152f35b3461029b576122533661273d565b90600052600a60205260406000209060005260205260a06040600020805490600181015490600281015460046003830154920154926040519485526020850152604084015260608301526080820152f35b3461029b57611a4a6122b536612753565b916122c3611a358433612b5b565b612c23565b3461029b576122d63661273d565b90600052600d602052604060002090600052602052602060ff604060002054166040519015158152f35b3461029b57604036600319011261029b576123196126b9565b602435906001600160a01b03808061233085612a1e565b1692169180831461242b57803314908115612406575b501561239b57600083815260046020526040902080546001600160a01b0319168317905561237383612a1e565b167f8c5be1e5ebec7d5bd14f71427d1e84f3dd0314c0f7b2291e5b200ac8c7c3b925600080a4005b60405162461bcd60e51b815260206004820152603d60248201527f4552433732313a20617070726f76652063616c6c6572206973206e6f7420746f60448201527f6b656e206f776e6572206f7220617070726f76656420666f7220616c6c0000006064820152608490fd5b9050600052600560205260406000203360005260205260ff6040600020541684612346565b60405162461bcd60e51b815260206004820152602160248201527f4552433732313a20617070726f76616c20746f2063757272656e74206f776e656044820152603960f91b6064820152608490fd5b3461029b57602036600319011261029b576020611e99600435612a44565b3461029b57600036600319011261029b57604051600080546124b981612788565b80845290600190818116908115611bdf57506001146124e2576111bc84611b72818603826128aa565b600080805292507f290decd9548b62a8d60345a988386fc84ba6bc95484008f6362f93160ef3e5635b828410612523575050508101602001611b7282611b62565b8054602085870181019190915290930192810161250b565b3461029b57602036600319011261029b576125546126b9565b61255c61297a565b6001600160a01b031680156125b15780600052600f6020526040600020600160ff198254161790557fd050846fbbc71ea3fa1c3cde22c675780769aaa30c5152a411e2e1086ce931f8602060405160018152a2005b60405162461bcd60e51b815260206004820152601b60248201527f4167656e7452656769737472793a207a65726f206164647265737300000000006044820152606490fd5b3461029b57604036600319011261029b5761260f6126b9565b6001600160a01b031660009081526009602052604090208054602435919082101561029b57602091612640916126e5565b90546040519160031b1c8152f35b3461029b57602036600319011261029b576004359063ffffffff60e01b821680920361029b576020916380ac58cd60e01b81149081156126a8575b8115612697575b5015158152f35b6301ffc9a760e01b14905083612690565b635b5e139f60e01b81149150612689565b600435906001600160a01b038216820361029b57565b602435906001600160a01b038216820361029b57565b80548210156119755760005260206000200190600090565b919082519283825260005b848110612729575050826000602080949584010152601f8019910116010190565b602081830181015184830182015201612708565b604090600319011261029b576004359060243590565b606090600319011261029b576001600160a01b0390600435828116810361029b5791602435908116810361029b579060443590565b90600182811c921680156127b8575b60208310146127a257565b634e487b7160e01b600052602260045260246000fd5b91607f1691612797565b90600092918054916127d383612788565b91828252600193848116908160001461283557506001146127f5575b50505050565b90919394506000526020928360002092846000945b8386106128215750505050010190388080806127ef565b80548587018301529401938590820161280a565b9294505050602093945060ff191683830152151560051b010190388080806127ef565b6101a081019081106001600160401b03821117610b7357604052565b60a081019081106001600160401b03821117610b7357604052565b602081019081106001600160401b03821117610b7357604052565b90601f801991011681019081106001600160401b03821117610b7357604052565b9181601f8401121561029b578235916001600160401b03831161029b576020838186019501011161029b57565b6001600160401b038111610b7357601f01601f191660200190565b92919261291f826128f8565b9161292d60405193846128aa565b82948184528183011161029b578281602093846000960137010152565b9181601f8401121561029b578235916001600160401b03831161029b576020808501948460051b01011161029b57565b6006546001600160a01b0316330361298e57565b606460405162461bcd60e51b815260206004820152602060248201527f4f776e61626c653a2063616c6c6572206973206e6f7420746865206f776e65726044820152fd5b156129d957565b60405162461bcd60e51b815260206004820152601860248201527f4552433732313a20696e76616c696420746f6b656e20494400000000000000006044820152606490fd5b6000908152600260205260409020546001600160a01b0316612a418115156129d2565b90565b600081815260026020526040902054612a67906001600160a01b031615156129d2565b6000908152600460205260409020546001600160a01b031690565b15612a8957565b60405162461bcd60e51b815260206004820152602d60248201527f4552433732313a2063616c6c6572206973206e6f7420746f6b656e206f776e6560448201526c1c881bdc88185c1c1c9bdd9959609a1b6064820152608490fd5b60809060208152603260208201527f4552433732313a207472616e7366657220746f206e6f6e20455243373231526560408201527131b2b4bb32b91034b6b83632b6b2b73a32b960711b60608201520190565b15612b3e57565b60405162461bcd60e51b815280612b5760048201612ae4565b0390fd5b906001600160a01b038080612b6f84612a1e565b16931691838314938415612ba2575b508315612b8c575b50505090565b612b9891929350612a44565b1614388080612b86565b909350600052600560205260406000208260005260205260ff604060002054169238612b7e565b15612bd057565b60405162461bcd60e51b815260206004820152602560248201527f4552433732313a207472616e736665722066726f6d20696e636f72726563742060448201526437bbb732b960d91b6064820152608490fd5b90612c4b91612c3184612a1e565b6001600160a01b0393918416928492909183168414612bc9565b16918215612ce35781612c6891612c6186612a1e565b1614612bc9565b7fddf252ad1be2c89b69c2b068fc378daa952ba7f163c4a11628f55a4df523b3ef60008481526004602052604081206001600160601b0360a01b9081815416905583825260036020526040822060001981540190558482526040822060018154019055858252600260205284604083209182541617905580a4565b60405162461bcd60e51b8152602060048201526024808201527f4552433732313a207472616e7366657220746f20746865207a65726f206164646044820152637265737360e01b6064820152608490fd5b91929091803b15612e4957612d81936040519081630a85bd0160e11b9384825233600483015260009687602484015260448301526080606483015281878160209a8b9660848301906126fd565b03926001600160a01b03165af1849181612e05575b50612df4575050503d600014612dec573d612db0816128f8565b90612dbe60405192836128aa565b81528091833d92013e5b80519182612de95760405162461bcd60e51b815280612b5760048201612ae4565b01fd5b506060612dc8565b6001600160e01b0319161492509050565b9091508581813d8311612e42575b612e1d81836128aa565b81010312612e3e57516001600160e01b031981168103612e3e579038612d96565b8480fd5b503d612e13565b50915050600190565b92939190803b15612ecf57612ea4946040518092630a85bd0160e11b9485835233600484015260018060a01b03809816602484015260448301526080606483015281806020998a9560848301906126fd565b03916000988991165af1849181612e055750612df4575050503d600014612dec573d612db0816128f8565b5050915050600190565b8115612ee3570490565b634e487b7160e01b600052601260045260246000fd5b90601f8111612f0757505050565b600091825260208220906020601f850160051c83019410612f43575b601f0160051c01915b828110612f3857505050565b818155600101612f2c565b9092508290612f23565b60001981146110635760010190565b91908110156119755760051b0190565b908060209392818452848401376000828201840152601f01601f1916010190565b15612f9457565b60405162461bcd60e51b815260206004820152601c60248201527f4552433732313a20746f6b656e20616c7265616479206d696e746564000000006044820152606490fd5b9190820180921161106357565b15612fed57565b60405162461bcd60e51b815260206004820152601e60248201527f4167656e7452656769737472793a206e6f74206167656e74206f776e657200006044820152606490fd5b1561303957565b60405162461bcd60e51b815260206004820152601860248201527f4167656e7452656769737472793a20656d7074792043494400000000000000006044820152606490fd5b6001600160401b038111610b735760051b60200190565b81156131b75760008181526020600d81526040808320858452825260ff81842054166131b057838352600b82528083205491603283101561316457848452600c815281842083855281528582852055848452600e815281842086855281528282852055848452600d81528184208685528152818420600160ff198254161790556001830180931161315057848452600b90528220557f28f9d391624e5add492b4237a3c1e08096a55c78762c3d89255f71d2fed398c09080a3565b634e487b7160e01b84526011600452602484fd5b608491519062461bcd60e51b82526004820152602160248201527f4167656e7452656769737472793a206d617820736b696c6c73207265616368656044820152601960fa1b6064820152fd5b5050505050565b60405162461bcd60e51b815260206004820152601b60248201527f4167656e7452656769737472793a207a65726f20736b696c6c496400000000006044820152606490fdfea2646970667358221220fb8e2e702a2817250b4e65f05c034dbb2d2eb99352d3083fe1e897c2eb3990ae64736f6c63430008140033",
  "linkReferences": {},
  "deployedLinkReferences": {}
}