{
  "_format": "hh-sol-artifact-1",
  "contractName": "ProgressiveEscrow",
  "sourceName": "src/ProgressiveEscrow.sol",
  "abi": [
    {
      "inputs": [
        {
          "internalType": "address",
          "name": "_agentRegistry",
          "type": "address"
        },
        {
          "internalType": "address",
          "name": "_alignmentNodeVerifier",
          "type": "address"
        }
      ],
      "stateMutability": "nonpayable",
      "type": "constructor"
    },
    {
      "anonymous": false,
      "inputs": [
        {
          "indexed": true,
          "internalType": "uint256",
          "name": "jobId",
          "type": "uint256"
        },
        {
          "indexed": false,
          "internalType": "uint256",
          "name": "refundWei",
          "type": "uint256"
        }
      ],
      "name": "JobCancelled",
      "type": "event"
    },
    {
      "anonymous": false,
      "inputs": [
        {
          "indexed": true,
          "internalType": "uint256",
          "name": "jobId",
          "type": "uint256"
        },
        {
          "indexed": false,
          "internalType": "uint256",
          "name": "totalReleasedWei",
          "type": "uint256"
        }
      ],
      "name": "JobCompleted",
      "type": "event"
    },
    {
      "anonymous": false,
      "inputs": [
        {
          "indexed": true,
          "internalType": "uint256",
          "name": "jobId",
          "type": "uint256"
        },
        {
          "indexed": true,
          "internalType": "address",
          "name": "client",
          "type": "address"
        },
        {
          "indexed": false,
          "internalType": "bytes32",
          "name": "skillId",
          "type": "bytes32"
        },
        {
          "indexed": false,
          "internalType": "string",
          "name": "jobDataCID",
          "type": "string"
        }
      ],
      "name": "JobPosted",
      "type": "event"
    },
    {
      "anonymous": false,
      "inputs": [
        {
          "indexed": true,
          "internalType": "uint256",
          "name": "jobId",
          "type": "uint256"
        },
        {
          "indexed": true,
          "internalType": "uint8",
          "name": "milestoneIndex",
          "type": "uint8"
        },
        {
          "indexed": false,
          "internalType": "uint256",
          "name": "amountWei",
          "type": "uint256"
        },
        {
          "indexed": false,
          "internalType": "uint256",
          "name": "alignmentScore",
          "type": "uint256"
        }
      ],
      "name": "MilestoneApproved",
      "type": "event"
    },
    {
      "anonymous": false,
      "inputs": [
        {
          "indexed": true,
          "internalType": "uint256",
          "name": "jobId",
          "type": "uint256"
        },
        {
          "indexed": false,
          "internalType": "uint8",
          "name": "milestoneCount",
          "type": "uint8"
        }
      ],
      "name": "MilestoneDefined",
      "type": "event"
    },
    {
      "anonymous": false,
      "inputs": [
        {
          "indexed": true,
          "internalType": "uint256",
          "name": "jobId",
          "type": "uint256"
        },
        {
          "indexed": true,
          "internalType": "uint8",
          "name": "milestoneIndex",
          "type": "uint8"
        },
        {
          "indexed": false,
          "internalType": "uint256",
          "name": "refundWei",
          "type": "uint256"
        },
        {
          "indexed": false,
          "internalType": "uint256",
          "name": "alignmentScore",
          "type": "uint256"
        }
      ],
      "name": "MilestoneRejected",
      "type": "event"
    },
    {
      "anonymous": false,
      "inputs": [
        {
          "indexed": true,
          "internalType": "uint256",
          "name": "jobId",
          "type": "uint256"
        },
        {
          "indexed": true,
          "internalType": "uint8",
          "name": "milestoneIndex",
          "type": "uint8"
        },
        {
          "indexed": false,
          "internalType": "string",
          "name": "outputCID",
          "type": "string"
        },
        {
          "indexed": false,
          "internalType": "uint256",
          "name": "retryCount",
          "type": "uint256"
        }
      ],
      "name": "MilestoneSubmitted",
      "type": "event"
    },
    {
      "anonymous": false,
      "inputs": [
        {
          "indexed": true,
          "internalType": "address",
          "name": "previousOwner",
          "type": "address"
        },
        {
          "indexed": true,
          "internalType": "address",
          "name": "newOwner",
          "type": "address"
        }
      ],
      "name": "OwnershipTransferred",
      "type": "event"
    },
    {
      "anonymous": false,
      "inputs": [
        {
          "indexed": true,
          "internalType": "uint256",
          "name": "jobId",
          "type": "uint256"
        },
        {
          "indexed": false,
          "internalType": "uint256",
          "name": "proposalIndex",
          "type": "uint256"
        },
        {
          "indexed": true,
          "internalType": "uint256",
          "name": "agentId",
          "type": "uint256"
        },
        {
          "indexed": false,
          "internalType": "uint256",
          "name": "budgetWei",
          "type": "uint256"
        }
      ],
      "name": "ProposalAccepted",
      "type": "event"
    },
    {
      "anonymous": false,
      "inputs": [
        {
          "indexed": true,
          "internalType": "uint256",
          "name": "jobId",
          "type": "uint256"
        },
        {
          "indexed": false,
          "internalType": "uint256",
          "name": "proposalIndex",
          "type": "uint256"
        },
        {
          "indexed": true,
          "internalType": "uint256",
          "name": "agentId",
          "type": "uint256"
        },
        {
          "indexed": false,
          "internalType": "uint256",
          "name": "proposedRateWei",
          "type": "uint256"
        }
      ],
      "name": "ProposalSubmitted",
      "type": "event"
    },
    {
      "anonymous": false,
      "inputs": [
        {
          "indexed": true,
          "internalType": "address",
          "name": "releaser",
          "type": "address"
        },
        {
          "indexed": false,
          "internalType": "bool",
          "name": "authorized",
          "type": "bool"
        }
      ],
      "name": "ReleaserAuthorized",
      "type": "event"
    },
    {
      "inputs": [],
      "name": "APPROVAL_THRESHOLD",
      "outputs": [
        {
          "internalType": "uint256",
          "name": "",
          "type": "uint256"
        }
      ],
      "stateMutability": "view",
      "type": "function"
    },
    {
      "inputs": [],
      "name": "MAX_RETRIES",
      "outputs": [
        {
          "internalType": "uint256",
          "name": "",
          "type": "uint256"
        }
      ],
      "stateMutability": "view",
      "type": "function"
    },
    {
      "inputs": [
        {
          "internalType": "uint256",
          "name": "jobId",
          "type": "uint256"
        },
        {
          "internalType": "uint256",
          "name": "proposalIndex",
          "type": "uint256"
        }
      ],
      "name": "acceptProposal",
      "outputs": [],
      "stateMutability": "payable",
      "type": "function"
    },
    {
      "inputs": [
        {
          "internalType": "address",
          "name": "releaser",
          "type": "address"
        }
      ],
      "name": "addAuthorizedReleaser",
      "outputs": [],
      "stateMutability": "nonpayable",
      "type": "function"
    },
    {
      "inputs": [
        {
          "internalType": "address",
          "name": "",
          "type": "address"
        },
        {
          "internalType": "uint256",
          "name": "",
          "type": "uint256"
        }
      ],
      "name": "agentJobs",
      "outputs": [
        {
          "internalType": "uint256",
          "name": "",
          "type": "uint256"
        }
      ],
      "stateMutability": "view",
      "type": "function"
    },
    {
      "inputs": [],
      "name": "agentRegistry",
      "outputs": [
        {
          "internalType": "contract IAgentRegistry",
          "name": "",
          "type": "address"
        }
      ],
      "stateMutability": "view",
      "type": "function"
    },
    {
      "inputs": [],
      "name": "alignmentNodeVerifier",
      "outputs": [
        {
          "internalType": "address",
          "name": "",
          "type": "address"
        }
      ],
      "stateMutability": "view",
      "type": "function"
    },
    {
      "inputs": [
        {
          "internalType": "address",
          "name": "",
          "type": "address"
        }
      ],
      "name": "authorizedReleasers",
      "outputs": [
        {
          "internalType": "bool",
          "name": "",
          "type": "bool"
        }
      ],
      "stateMutability": "view",
      "type": "function"
    },
    {
      "inputs": [
        {
          "internalType": "uint256",
          "name": "jobId",
          "type": "uint256"
        }
      ],
      "name": "cancelJob",
      "outputs": [],
      "stateMutability": "nonpayable",
      "type": "function"
    },
    {
      "inputs": [
        {
          "internalType": "address",
          "name": "",
          "type": "address"
        },
        {
          "internalType": "uint256",
          "name": "",
          "type": "uint256"
        }
      ],
      "name": "clientJobs",
      "outputs": [
        {
          "internalType": "uint256",
          "name": "",
          "type": "uint256"
        }
      ],
      "stateMutability": "view",
      "type": "function"
    },
    {
      "inputs": [
        {
          "internalType": "uint256",
          "name": "jobId",
          "type": "uint256"
        },
        {
          "internalType": "uint8[]",
          "name": "percentages",
          "type": "uint8[]"
        },
        {
          "internalType": "bytes32[]",
          "name": "criteriaHashes",
          "type": "bytes32[]"
        }
      ],
      "name": "defineMilestones",
      "outputs": [],
      "stateMutability": "nonpayable",
      "type": "function"
    },
    {
      "inputs": [
        {
          "internalType": "address",
          "name": "agentWallet",
          "type": "address"
        }
      ],
      "name": "getAgentJobs",
      "outputs": [
        {
          "internalType": "uint256[]",
          "name": "",
          "type": "uint256[]"
        }
      ],
      "stateMutability": "view",
      "type": "function"
    },
    {
      "inputs": [
        {
          "internalType": "address",
          "name": "client",
          "type": "address"
        }
      ],
      "name": "getClientJobs",
      "outputs": [
        {
          "internalType": "uint256[]",
          "name": "",
          "type": "uint256[]"
        }
      ],
      "stateMutability": "view",
      "type": "function"
    },
    {
      "inputs": [
        {
          "internalType": "uint256",
          "name": "jobId",
          "type": "uint256"
        }
      ],
      "name": "getJob",
      "outputs": [
        {
          "components": [
            {
              "internalType": "uint256",
              "name": "jobId",
              "type": "uint256"
            },
            {
              "internalType": "address",
              "name": "client",
              "type": "address"
            },
            {
              "internalType": "uint256",
              "name": "agentId",
              "type": "uint256"
            },
            {
              "internalType": "address",
              "name": "agentWallet",
              "type": "address"
            },
            {
              "internalType": "uint256",
              "name": "totalBudgetWei",
              "type": "uint256"
            },
            {
              "internalType": "uint256",
              "name": "releasedWei",
              "type": "uint256"
            },
            {
              "internalType": "enum ProgressiveEscrow.JobStatus",
              "name": "status",
              "type": "uint8"
            },
            {
              "components": [
                {
                  "internalType": "uint8",
                  "name": "percentage",
                  "type": "uint8"
                },
                {
                  "internalType": "uint256",
                  "name": "amountWei",
                  "type": "uint256"
                },
                {
                  "internalType": "enum ProgressiveEscrow.MilestoneStatus",
                  "name": "status",
                  "type": "uint8"
                },
                {
                  "internalType": "bytes32",
                  "name": "criteriaHash",
                  "type": "bytes32"
                },
                {
                  "internalType": "string",
                  "name": "outputCID",
                  "type": "string"
                },
                {
                  "internalType": "uint256",
                  "name": "alignmentScore",
                  "type": "uint256"
                },
                {
                  "internalType": "uint256",
                  "name": "retryCount",
                  "type": "uint256"
                },
                {
                  "internalType": "uint256",
                  "name": "submittedAt",
                  "type": "uint256"
                },
                {
                  "internalType": "uint256",
                  "name": "completedAt",
                  "type": "uint256"
                }
              ],
              "internalType": "struct ProgressiveEscrow.Milestone[]",
              "name": "milestones",
              "type": "tuple[]"
            },
            {
              "internalType": "uint256",
              "name": "createdAt",
              "type": "uint256"
            },
            {
              "internalType": "string",
              "name": "jobDataCID",
              "type": "string"
            },
            {
              "internalType": "bytes32",
              "name": "skillId",
              "type": "bytes32"
            }
          ],
          "internalType": "struct ProgressiveEscrow.Job",
          "name": "",
          "type": "tuple"
        }
      ],
      "stateMutability": "view",
      "type": "function"
    },
    {
      "inputs": [
        {
          "internalType": "uint256",
          "name": "jobId",
          "type": "uint256"
        },
        {
          "internalType": "uint8",
          "name": "index",
          "type": "uint8"
        }
      ],
      "name": "getMilestone",
      "outputs": [
        {
          "components": [
            {
              "internalType": "uint8",
              "name": "percentage",
              "type": "uint8"
            },
            {
              "internalType": "uint256",
              "name": "amountWei",
              "type": "uint256"
            },
            {
              "internalType": "enum ProgressiveEscrow.MilestoneStatus",
              "name": "status",
              "type": "uint8"
            },
            {
              "internalType": "bytes32",
              "name": "criteriaHash",
              "type": "bytes32"
            },
            {
              "internalType": "string",
              "name": "outputCID",
              "type": "string"
            },
            {
              "internalType": "uint256",
              "name": "alignmentScore",
              "type": "uint256"
            },
            {
              "internalType": "uint256",
              "name": "retryCount",
              "type": "uint256"
            },
            {
              "internalType": "uint256",
              "name": "submittedAt",
              "type": "uint256"
            },
            {
              "internalType": "uint256",
              "name": "completedAt",
              "type": "uint256"
            }
          ],
          "internalType": "struct ProgressiveEscrow.Milestone",
          "name": "",
          "type": "tuple"
        }
      ],
      "stateMutability": "view",
      "type": "function"
    },
    {
      "inputs": [],
      "name": "getOpenJobs",
      "outputs": [
        {
          "internalType": "uint256[]",
          "name": "",
          "type": "uint256[]"
        }
      ],
      "stateMutability": "view",
      "type": "function"
    },
    {
      "inputs": [
        {
          "internalType": "uint256",
          "name": "jobId",
          "type": "uint256"
        }
      ],
      "name": "getProposals",
      "outputs": [
        {
          "components": [
            {
              "internalType": "uint256",
              "name": "agentId",
              "type": "uint256"
            },
            {
              "internalType": "address",
              "name": "agentOwner",
              "type": "address"
            },
            {
              "internalType": "uint256",
              "name": "proposedRateWei",
              "type": "uint256"
            },
            {
              "internalType": "string",
              "name": "descriptionCID",
              "type": "string"
            },
            {
              "internalType": "uint256",
              "name": "submittedAt",
              "type": "uint256"
            },
            {
              "internalType": "bool",
              "name": "accepted",
              "type": "bool"
            }
          ],
          "internalType": "struct ProgressiveEscrow.Proposal[]",
          "name": "",
          "type": "tuple[]"
        }
      ],
      "stateMutability": "view",
      "type": "function"
    },
    {
      "inputs": [
        {
          "internalType": "uint256",
          "name": "",
          "type": "uint256"
        },
        {
          "internalType": "uint256",
          "name": "",
          "type": "uint256"
        }
      ],
      "name": "jobProposals",
      "outputs": [
        {
          "internalType": "uint256",
          "name": "agentId",
          "type": "uint256"
        },
        {
          "internalType": "address",
          "name": "agentOwner",
          "type": "address"
        },
        {
          "internalType": "uint256",
          "name": "proposedRateWei",
          "type": "uint256"
        },
        {
          "internalType": "string",
          "name": "descriptionCID",
          "type": "string"
        },
        {
          "internalType": "uint256",
          "name": "submittedAt",
          "type": "uint256"
        },
        {
          "internalType": "bool",
          "name": "accepted",
          "type": "bool"
        }
      ],
      "stateMutability": "view",
      "type": "function"
    },
    {
      "inputs": [
        {
          "internalType": "uint256",
          "name": "",
          "type": "uint256"
        }
      ],
      "name": "jobs",
      "outputs": [
        {
          "internalType": "uint256",
          "name": "jobId",
          "type": "uint256"
        },
        {
          "internalType": "address",
          "name": "client",
          "type": "address"
        },
        {
          "internalType": "uint256",
          "name": "agentId",
          "type": "uint256"
        },
        {
          "internalType": "address",
          "name": "agentWallet",
          "type": "address"
        },
        {
          "internalType": "uint256",
          "name": "totalBudgetWei",
          "type": "uint256"
        },
        {
          "internalType": "uint256",
          "name": "releasedWei",
          "type": "uint256"
        },
        {
          "internalType": "enum ProgressiveEscrow.JobStatus",
          "name": "status",
          "type": "uint8"
        },
        {
          "internalType": "uint256",
          "name": "createdAt",
          "type": "uint256"
        },
        {
          "internalType": "string",
          "name": "jobDataCID",
          "type": "string"
        },
        {
          "internalType": "bytes32",
          "name": "skillId",
          "type": "bytes32"
        }
      ],
      "stateMutability": "view",
      "type": "function"
    },
    {
      "inputs": [],
      "name": "owner",
      "outputs": [
        {
          "internalType": "address",
          "name": "",
          "type": "address"
        }
      ],
      "stateMutability": "view",
      "type": "function"
    },
    {
      "inputs": [
        {
          "internalType": "string",
          "name": "jobDataCID",
          "type": "string"
        },
        {
          "internalType": "bytes32",
          "name": "skillId",
          "type": "bytes32"
        }
      ],
      "name": "postJob",
      "outputs": [
        {
          "internalType": "uint256",
          "name": "jobId",
          "type": "uint256"
        }
      ],
      "stateMutability": "nonpayable",
      "type": "function"
    },
    {
      "inputs": [
        {
          "internalType": "uint256",
          "name": "jobId",
          "type": "uint256"
        },
        {
          "internalType": "uint8",
          "name": "milestoneIndex",
          "type": "uint8"
        },
        {
          "internalType": "string",
          "name": "outputCID",
          "type": "string"
        },
        {
          "internalType": "uint256",
          "name": "alignmentScore",
          "type": "uint256"
        },
        {
          "internalType": "bytes",
          "name": "signature",
          "type": "bytes"
        }
      ],
      "name": "releaseMilestone",
      "outputs": [],
      "stateMutability": "nonpayable",
      "type": "function"
    },
    {
      "inputs": [
        {
          "internalType": "address",
          "name": "releaser",
          "type": "address"
        }
      ],
      "name": "removeAuthorizedReleaser",
      "outputs": [],
      "stateMutability": "nonpayable",
      "type": "function"
    },
    {
      "inputs": [],
      "name": "renounceOwnership",
      "outputs": [],
      "stateMutability": "nonpayable",
      "type": "function"
    },
    {
      "inputs": [
        {
          "internalType": "uint256",
          "name": "jobId",
          "type": "uint256"
        },
        {
          "internalType": "uint256",
          "name": "agentId",
          "type": "uint256"
        },
        {
          "internalType": "uint256",
          "name": "proposedRateWei",
          "type": "uint256"
        },
        {
          "internalType": "string",
          "name": "descriptionCID",
          "type": "string"
        }
      ],
      "name": "submitProposal",
      "outputs": [],
      "stateMutability": "nonpayable",
      "type": "function"
    },
    {
      "inputs": [],
      "name": "totalJobs",
      "outputs": [
        {
          "internalType": "uint256",
          "name": "",
          "type": "uint256"
        }
      ],
      "stateMutability": "view",
      "type": "function"
    },
    {
      "inputs": [
        {
          "internalType": "address",
          "name": "newOwner",
          "type": "address"
        }
      ],
      "name": "transferOwnership",
      "outputs": [],
      "stateMutability": "nonpayable",
      "type": "function"
    }
  ],
  "bytecode": "0x60a0346200019757601f6200368a38819003918201601f19168301916001600160401b038311848410176200019c57808492604094855283398101031262000197576200005a60206200005283620001b2565b9201620001b2565b6001600081815581546001600160a01b0319808216339081179094556040519590946001600160a01b0394909385938416907f8be0079c531659141344cd1fd0a4f28419497f9722a3daafe3b4186f6b6457e09080a31693841562000147575016918215620001035760805260095416176009556040516134c29081620001c8823960805181818161038301528181610c8201528181610e0a0152818161225801526128150152f35b606460405162461bcd60e51b815260206004820152602060248201527f50726f6772657373697665457363726f773a207a65726f2076657269666965726044820152fd5b62461bcd60e51b815260206004820152602560248201527f50726f6772657373697665457363726f773a207a65726f206167656e74526567604482015264697374727960d81b6064820152608490fd5b600080fd5b634e487b7160e01b600052604160045260246000fd5b51906001600160a01b0382168203620001975756fe608080604052600436101561001357600080fd5b600090813560e01c908163056da8df14612844575080630d1cfcae146127ff5780631321c95e146126d857806313432a59146121c6578063180aedf31461210b5780631ace87b3146120ed5780631dffa3dc14611f0b5780632c72fdfc14611da55780632ebd760414611d7c5780633ab3429014611d5f57806346ebbdb014611d43578063597c010c14611d045780635b213d221461171357806364abad03146116a6578063715018a6146116495780637eb4d24a146113a65780638c079d65146113335780638cc14d051461129e5780638da5cb5b146112755780638facd8591461122d578063984cef39146109ae578063bf22c45714610742578063cf2646c2146106bb578063d801fd2d14610665578063e1e1d5ca146102cd578063ea94141a146102125763f2fde38b1461014a57600080fd5b3461020f57602036600319011261020f57610163612bb9565b61016b612c96565b6001600160a01b039081169081156101bb57600154826001600160601b0360a01b821617600155167f8be0079c531659141344cd1fd0a4f28419497f9722a3daafe3b4186f6b6457e0600080a380f35b60405162461bcd60e51b815260206004820152602660248201527f4f776e61626c653a206e6577206f776e657220697320746865207a65726f206160448201526564647265737360d01b6064820152608490fd5b80fd5b503461020f57602036600319011261020f5761022c612bb9565b610234612c96565b6001600160a01b0316801561028857808252600a60205260408220600160ff198254161790557f17d8aeb95f3315647a8a9b97606b958a205d091003f4789d3d0329a832da8b9b602060405160018152a280f35b60405162461bcd60e51b815260206004820152601f60248201527f50726f6772657373697665457363726f773a207a65726f2061646472657373006044820152606490fd5b506102d736612bff565b906102e0613029565b808352602091600383526040842060018060a01b03610306816001840154163314612fdd565b6006820160ff8154166006811015610651576103229015612dab565b8487526006865260408720548410156105fa57848752600686526103498460408920612c15565b5092600584019182549160ff83166105a0576002860154340361054157855460405163784c53d760e11b8152600481018290528b816024817f00000000000000000000000000000000000000000000000000000000000000008b165afa908115610536578c91610514575b50610180810151156104bd578a0194868651161561046957916040979593917ff84c5a1ba450609000ea761fed026daedd191d0794499207c754945484b7cdc199979593600160ff1980961617905560028201558484511660038201906001600160601b0360a01b825416179055600434910155600182825416179055878a5260088952858a20908154169055511687526005865261045585848920612d67565b549482519182523490820152a36001815580f35b60405162461bcd60e51b8152600481018c9052602660248201527f50726f6772657373697665457363726f773a20696e76616c6964206167656e7460448201526515d85b1b195d60d21b6064820152608490fd5b60405162461bcd60e51b8152600481018c9052602960248201527f50726f6772657373697665457363726f773a206167656e74206e6f206c6f6e6760448201526865722061637469766560b81b6064820152608490fd5b61053091503d808e833e6105288183612ae5565b810190612e85565b386103b4565b6040513d8e823e3d90fd5b60405162461bcd60e51b8152600481018a9052603160248201527f50726f6772657373697665457363726f773a2076616c7565206d757374206d616044820152707463682070726f706f736564207261746560781b6064820152608490fd5b60405162461bcd60e51b8152600481018a9052602c60248201527f50726f6772657373697665457363726f773a2070726f706f73616c20616c726560448201526b18591e481858d8d95c1d195960a21b6064820152608490fd5b60405162461bcd60e51b815260048101879052602960248201527f50726f6772657373697665457363726f773a20696e76616c69642070726f706f6044820152680e6c2d840d2dcc8caf60bb1b6064820152608490fd5b634e487b7160e01b88526021600452602488fd5b503461020f57604036600319011261020f5761067f612bb9565b6001600160a01b031681526005602052604081208054602435929083101561020f5760206106ad8484612c7e565b90546040519160031b1c8152f35b503461020f5760208060031936011261073e576001600160a01b036106de612bb9565b1682526004815260408220916040518092808554928381520194835280832092905b828210610727576107238561071781890382612ae5565b604051918291826129c7565b0390f35b835486529485019460019384019390910190610700565b5080fd5b503461020f57602036600319011261020f578061014060405161076481612ac9565b8281528260208201528260408201528260608201528260808201528260a08201528260c0820152606060e082015282610100820152606061012082015201526004358152600360205260408120906040516107be81612ac9565b8254815260018301546001600160a01b03908116602083015260028401546040830152600384015416606082015260048301546080820152600583015460a082015260068084015460ff169081101561099a5760c082015260078301928354610826816133fa565b906108346040519283612ae5565b80825260208201958552602085209585905b82821061097c5750505060e08301526008810154610100830152600a9061086f60098201612b06565b6101208401520154610140820152604051906020825261018082018151602084015260018060a01b0360208301511660408401526040820151606084015260018060a01b036060830151166080840152608082015160a084015260a082015160c08401526108e560c083015160e0850190612bac565b60e082015193610160918261010086015285518091526101a06020818701918360051b880101970192905b82821061095057505050506101406109458495610100850151610120870152610120850151601f19878303018488015261292e565b920151908301520390f35b9091929660208061096e60019361019f198b82030186528b51612953565b990192019201909291610910565b6009602060019261098c8b613411565b815201980191019096610846565b634e487b7160e01b83526021600452602483fd5b503461020f5760a036600319011261020f576109c86128d6565b6044356001600160401b038111610d51576109e7903690600401612a02565b6084356001600160401b038111610d6057610a06903690600401612a02565b90610a0f613029565b600435865260036020526040862092600384019460018060a01b0386541633148015611217575b156111ac5760ff6006860154166006811015611198576002036111445760078501805460ff891610156111005787610a6d916130aa565b5093600285019360ff855416610a82816128eb565b80159081156110ec575b50156110905760056006870154101561103c5761271060643511610ff857610b4191610b33610b39928c7f19457468657265756d205369676e6564204d6573736167653a0a3332000000008d6040516020810191600435835260ff60f81b9060f81b16604082015260643560418201528a8a6061830137610b1f6061828d81018783820152036041810184520182612ae5565b5190209152601c52603c8d20923691612fa6565b90613216565b9190916130f6565b6009546001600160a01b03908116911603610fa7576001600160401b038211610f935790839291610b8382610b7a60048c980154612a2f565b60048701612d13565b84601f8311600114610f2757859083610f1c575b508260011b906000198460031b1c19161760048501555b6064356005850155426007850155610be5610bcc6006860154612cee565b9182600687015560405193604085526040850191612d8a565b9060208301527fafba22bc286b0e073accf265a633a35e302c728563d67b89fadc163bbc548b8360ff89169280600435930390a3611f4060643510610dbd5782600181938293600260ff1982541617905542600882015501958654610c4f6005880191825461309d565b9055548654906001600160a01b03165af1610c686130c6565b5015610d645760028101548254600a9092015485929091907f00000000000000000000000000000000000000000000000000000000000000006001600160a01b0316803b15610d6057849283608492604051968795869463c72da86f60e01b8652600486015260248501526001604485015260648401525af18015610d5557610d3d575b505060ff905491604051928352606435602084015216907f26908ebf2ef6092f6ba87f45a9a10619ff8067ecfb9b6fada8294318e2270e35604060043592a3610d366004356132dd565b6001815580f35b610d4690612ab6565b610d51578238610cec565b8280fd5b6040513d84823e3d90fd5b8480fd5b60405162461bcd60e51b815260206004820152602b60248201527f50726f6772657373697665457363726f773a207472616e7366657220746f206160448201526a19d95b9d0819985a5b195960aa1b6064820152608490fd5b805460ff19166003179055426008820155600183810154910180549094508692508291829182916001600160a01b03165af1610df76130c6565b5015610ed8576002810154600a909101547f00000000000000000000000000000000000000000000000000000000000000006001600160a01b031691859190833b15610d515760849083604051958694859363c72da86f60e01b8552600485015282602485015282604485015260648401525af18015610ecd57610eb9575b5060ff905491604051928352606435602084015216907f9c55984da37b17c7594329ed9ec133f805b97b97a2a917a59f8a02805a7bbbd1604060043592a3610d36565b92610ec660ff9294612ab6565b9290610e76565b6040513d86823e3d90fd5b606460405162461bcd60e51b815260206004820152602060248201527f50726f6772657373697665457363726f773a20726566756e64206661696c65646044820152fd5b905081013538610b97565b6004850186526020862090865b601f1985168110610f78575083601f19811610610f5e575b5050600182811b016004850155610bae565b820135600019600385901b60f8161c191690553880610f4c565b8184013583558b975060019092019160209182019101610f34565b634e487b7160e01b88526041600452602488fd5b60405162461bcd60e51b8152602060048201526024808201527f50726f6772657373697665457363726f773a20696e76616c6964207369676e616044820152637475726560e01b6064820152608490fd5b606460405162461bcd60e51b815260206004820152602060248201527f50726f6772657373697665457363726f773a20696e76616c69642073636f72656044820152fd5b60405162461bcd60e51b815260206004820152602660248201527f50726f6772657373697665457363726f773a206d617820726574726965732072604482015265195858da195960d21b6064820152608490fd5b60405162461bcd60e51b815260206004820152602e60248201527f50726f6772657373697665457363726f773a206d696c6573746f6e6520616c7260448201526d1958591e48199a5b985b1a5e995960921b6064820152608490fd5b600491506110f9816128eb565b1438610a8c565b606460405162461bcd60e51b815260206004820152602060248201527f50726f6772657373697665457363726f773a20696e76616c696420696e6465786044820152fd5b60405162461bcd60e51b815260206004820152602660248201527f50726f6772657373697665457363726f773a206a6f62206e6f7420696e2070726044820152656f677265737360d01b6064820152608490fd5b634e487b7160e01b89526021600452602489fd5b60405162461bcd60e51b815260206004820152603a60248201527f50726f6772657373697665457363726f773a206f6e6c79206167656e7457616c60448201527f6c6574206f7220617574686f72697a65642072656c65617365720000000000006064820152608490fd5b50338852600a60205260ff604089205416610a36565b503461020f57604036600319011261020f57611247612bb9565b6001600160a01b031681526004602052604081208054602435929083101561020f5760206106ad8484612c7e565b503461020f578060031936011261020f576001546040516001600160a01b039091168152602090f35b503461020f576112ad36612bff565b9082526006602052604082208054821015610d51576112cc9250612c15565b50805460018060a01b036001830154169160028101546113226112f160038401612b06565b60ff60056004860154950154169260405196879687526020870152604086015260c0606086015260c085019061292e565b916080840152151560a08301520390f35b503461020f5760208060031936011261073e576001600160a01b03611356612bb9565b1682526005815260408220916040518092808554928381520194835280832092905b82821061138f576107238561071781890382612ae5565b835486529485019460019384019390910190611378565b503461020f57604036600319011261020f576001600160401b039060043582811161073e576113d9903690600401612a02565b9060243582156115f8576113ee600254612cee565b93846002558481526020956003875260408220918683556001918284016001600160601b0360a01b90338282541617905582600286015560038501908154169055816004850155816005850155600684019360ff1994858154169055426008820155600981019188116115e45785906114718961146b8554612a2f565b85612d13565b839289601f811160011461156d57600a93948691611562575b5060001960038c901b1c19168a871b1790555b0155338152600488526114b38760408320612d67565b600754600160401b81101561154e5791604088969492611517886114fe87867f1cfed61ee3f257d3e8ac0f5cc1b19c8d1e7861cd42a48894873fa4f60bdf25199b9901600755612c47565b90919082549060031b91821b91600019901b1916179055565b87815260088b522091825416179055611543604051928392835260408984015233966040840191612d8a565b0390a3604051908152f35b634e487b7160e01b82526041600452602482fd5b90508901353861148a565b89948d91601f1981168489528389209389905b8b8383106115be57505050600a969750106115a4575b5050858a811b01905561149d565b8a013560001960038d901b60f8161c191690553880611596565b92959196985093849350809799013581550194019201918b8b9694928f948c9795611580565b634e487b7160e01b83526041600452602483fd5b60405162461bcd60e51b815260206004820152602360248201527f50726f6772657373697665457363726f773a206a6f624461746143494420656d60448201526270747960e81b6064820152608490fd5b503461020f578060031936011261020f57611662612c96565b600180546001600160a01b0319811690915581906001600160a01b03167f8be0079c531659141344cd1fd0a4f28419497f9722a3daafe3b4186f6b6457e08280a380f35b503461020f57602036600319011261020f576116c0612bb9565b6116c8612c96565b6001600160a01b0316808252600a60209081526040808420805460ff19169055518381527f17d8aeb95f3315647a8a9b97606b958a205d091003f4789d3d0329a832da8b9b9190a280f35b503461020f57606036600319011261020f576024356001600160401b03811161073e57611744903690600401612bcf565b6044356001600160401b038111611d0057611763903690600401612bcf565b929060043585526003602052604085209161178b60018060a01b036001850154163314612fdd565b60ff6006840154166006811015611cec57600103611c91578315611c3357848403611bdd57600a8411611b8c5790859186915b8583106118715787868660648703611814576006600260ff1982840154161791015560ff604051911681527f27239def8da3acb1dad88fd6e345a7fc2fe2227f5c8319c43c506f2df8581ce5602060043592a280f35b60405162461bcd60e51b815260206004820152602f60248201527f50726f6772657373697665457363726f773a20746f74616c2070657263656e7460448201526e0616765206d7573742062652031303608c1b6064820152608490fd5b90919260ff61188961188486898761307f565b61308f565b1615611b35576118aa9060ff6118a3611884878a8861307f565b169061309d565b926118b961188482888661307f565b600486015460ff6118ce611884858b8961307f565b168181810204811482151715611b21576064906118ec858c8861307f565b359260ff604051956118fd87612a69565b1685520204602083015289604083015260608201526040518060208101106001600160401b03602083011117611b0d576020810160405289815260808201528860a08201528860c08201528860e0820152886101008201526007860154600160401b811015611b0d5780600161197c92016007890155600788016130aa565b919091611af95760ff81511660ff19908184541617835560208201516001840155600283019060ff6040840151916119b3836128eb565b6119bc836128eb565b83541691161790556060810151600383015560808101518051906001600160401b038211611ae5576119f582610b7a6004870154612a2f565b6020908c601f8411600114611a6c57928061010093611a5a9897969360089692611a61575b50508160011b916000199060031b1c19161760048501555b60a0810151600585015560c0810151600685015560e081015160078501550151910155612cee565b91906117be565b015190503880611a1a565b5090600485018d5260208d20918d5b601f1985168110611acd57508361010093611a5a98979693600193600897601f19811610611ab4575b505050811b016004850155611a32565b015160001960f88460031b161c19169055388080611aa4565b91926020600181928685015181550194019201611a7b565b634e487b7160e01b8c52604160045260248cfd5b634e487b7160e01b8a5260048a905260248afd5b634e487b7160e01b8a52604160045260248afd5b634e487b7160e01b8b52601160045260248bfd5b60405162461bcd60e51b815260206004820152602960248201527f50726f6772657373697665457363726f773a2070657263656e74616765206d7560448201526807374206265203e20360bc1b6064820152608490fd5b60405162461bcd60e51b8152602060048201526024808201527f50726f6772657373697665457363726f773a206d6178203130206d696c6573746044820152636f6e657360e01b6064820152608490fd5b60405162461bcd60e51b815260206004820152602860248201527f50726f6772657373697665457363726f773a206172726179206c656e677468206044820152670dad2e6dac2e8c6d60c31b6064820152608490fd5b60405162461bcd60e51b815260206004820152603060248201527f50726f6772657373697665457363726f773a206174206c656173742031206d6960448201526f1b195cdd1bdb99481c995c5d5a5c995960821b6064820152608490fd5b60405162461bcd60e51b815260206004820152602d60248201527f50726f6772657373697665457363726f773a206d696c6573746f6e657320616c60448201526c1c9958591e481919599a5b9959609a1b6064820152608490fd5b634e487b7160e01b87526021600452602487fd5b8380fd5b503461020f57602036600319011261020f5760209060ff906040906001600160a01b03611d2f612bb9565b168152600a84522054166040519015158152f35b503461020f578060031936011261020f57602060405160058152f35b503461020f578060031936011261020f576020604051611f408152f35b503461020f578060031936011261020f576009546040516001600160a01b039091168152602090f35b503461020f5760208060031936011261073e5790600435815260069081835260408120908154611dd4816133fa565b93611de26040519586612ae5565b8185528585018094845286842084915b848310611e9d575050505050604051928484019085855251809152604084019460408260051b8601019392955b828710611e2c5785850386f35b909192938280600192603f1989820301855287519081518152848060a01b0383830151168382015260408201516040820152611e776060808401519060c0809185015283019061292e565b916080808201519083015260a08091015115159101529601920196019592919092611e1f565b838960019260409b9a989b51611eb281612a9b565b85548152848060a01b0385870154168382015260028601546040820152611edb60038701612b06565b60608201526004860154608082015260ff600587015416151560a082015281520192019201919097949697611df2565b503461020f576020908160031936011261020f57600435611f2a613029565b808252600383526040822092600184019360018060a01b03611f50818754163314612fdd565b6006820195865460ff811693600685101580611198578515809681156120df575b5015612083576106515760056004820154910154918282039582871161206f57899a600460ff9b98999a9b19809416179055612058575b5003611fe3575b505050907f7e3805011acb8d49832d7ef085841e251e66267c06e54e0ac20cb09f3c696d3b91604051908152a26001815580f35b82848193829354165af1611ff56130c6565b501561200357833880611faf565b60405162461bcd60e51b815260048101839052602760248201527f50726f6772657373697665457363726f773a2063616e63656c20726566756e646044820152660819985a5b195960ca1b6064820152608490fd5b888652600888526040862090815416905538611fa8565b634e487b7160e01b8a52601160045260248afd5b60405162461bcd60e51b815260048101889052602e60248201527f50726f6772657373697665457363726f773a2063616e6e6f742063616e63656c60448201526d103090393ab73734b733903537b160911b6064820152608490fd5b915050600189911438611f71565b503461020f578060031936011261020f576020600254604051908152f35b503461020f57602036600319011261020f576040906004358152600360205220805460018060a01b036121bb81600185015416936002810154926003820154166121a46004830154600584015460ff60068601541691600886015494600a61217560098901612b06565b970154986040519b8c9b8c5260208c015260408b015260608a0152608089015260a088015260c0870190612bac565b60e08501526101408061010086015284019061292e565b906101208301520390f35b503461020f57608036600319011261020f5760248035906004359060448035906001600160401b03906064358281116126d457612207903690600401612a02565b91908689526020936003855260408a209260ff60068501541660068110156126c1576122339015612dab565b86156126735760405163784c53d760e11b8152600481018b90526001600160a01b03947f00000000000000000000000000000000000000000000000000000000000000008616918d9081818d81875afa91821561266757809261264c575b50508681511633036125fe576101800151156125af5790878a8d8f999897969594600a015493846124ca575b5050505050508885526006865260408520805498604051956122de87612a9b565b8c87526122fa8988019533875260408901928c84523691612fa6565b9460608801958652608088019642885260a08901998a52600160401b8d10156124b65761232e8d6001968782018155612c15565b9990996124a1575189558489019151166001600160601b0360a01b82541617905551600287015560038601935190815193841161248f575061237a836123748654612a2f565b86612d13565b87908d601f851160011461240157938060409b9997946005979482947f63c69542ba67a06b876524b0d0502bac961c108c7dba251b54e0e30cc9322b509f9d9b98946123f6575b50501b916000199060031b1c19161790555b516004820155019051151560ff801983541691161790558351928352820152a380f35b0151925038806123c1565b9190601f9493941984168684528a8420935b81811061247a5750927f63c69542ba67a06b876524b0d0502bac961c108c7dba251b54e0e30cc9322b509c9a989592859260409d9b99966005999610612461575b505050811b0190556123d3565b015160001960f88460031b161c19169055388080612454565b82840151855593860193928b01928b01612413565b634e487b7160e01b8e5260416004528dfd5b5050634e487b7160e01b8f5260048f9052828ffd5b50634e487b7160e01b8f526041600452828ffd5b85969798999a506040959293949551958694859363039e78fd60e11b855260048501528301525afa908115610536578c91612576575b501561251657908180878a8d8f999897966122bd565b857f50726f6772657373697665457363726f773a206167656e7420646f6573206e6f60849260358b6040519462461bcd60e51b86526004860152840152820152741d081a185d99481c995c5d5a5c9959081cdada5b1b605a1b6064820152fd5b90508681813d83116125a8575b61258d8183612ae5565b810103126125a45761259e90612e78565b38612500565b8b80fd5b503d612583565b60405162461bcd60e51b8152600481018990526023818c01527f50726f6772657373697665457363726f773a206167656e74206e6f7420616374818501526269766560e81b6064820152608490fd5b60405162461bcd60e51b8152600481018a90526022818d01527f50726f6772657373697665457363726f773a206e6f74206167656e74206f776e818601526132b960f11b6064820152608490fd5b61266092503d8091833e6105288183612ae5565b388e612291565b604051903d90823e3d90fd5b857f50726f6772657373697665457363726f773a2072617465206d7573742062652060849260238b6040519462461bcd60e51b865260048601528401528201526203e20360ec1b6064820152fd5b634e487b7160e01b8c526021600452888cfd5b8780fd5b503461020f578060031936011261020f578081600754905b8181106127b85750612701826133fa565b9161270f6040519384612ae5565b80835261271e601f19916133fa565b0160209036828501378390845b838110612740576040518061072387826129c7565b61274981612c47565b9054600391821b1c87526008835260ff604088205416612773575b5061276e90612cee565b61272b565b61277c82612c47565b9054911b1c61278a84612cee565b9386518110156127a45760051b860183015261276e612764565b634e487b7160e01b88526032600452602488fd5b6127c181612c47565b90549060031b1c8452600860205260ff6040852054166127ea575b6127e590612cee565b6126f0565b916127f76127e591612cee565b9290506127dc565b503461020f578060031936011261020f576040517f00000000000000000000000000000000000000000000000000000000000000006001600160a01b03168152602090f35b90503461073e57604036600319011261073e576128bc6128c2916007604085610723966101006128726128d6565b9561287c81612a69565b8281528260208201528285820152826060820152606060808201528260a08201528260c08201528260e082015201526004358152600360205220016130aa565b50613411565b604051918291602083526020830190612953565b6024359060ff821682036128e657565b600080fd5b600511156128f557565b634e487b7160e01b600052602160045260246000fd5b60005b83811061291e5750506000910152565b818101518382015260200161290e565b906020916129478151809281855285808601910161290b565b601f01601f1916010190565b9060ff8251168152602082015160208201526040820151612973816128eb565b60408201526060820151606082015261299b608083015161012080608085015283019061292e565b9160a081015160a083015260c081015160c083015260e081015160e08301526101008091015191015290565b6020908160408183019282815285518094520193019160005b8281106129ee575050505090565b8351855293810193928101926001016129e0565b9181601f840112156128e6578235916001600160401b0383116128e657602083818601950101116128e657565b90600182811c92168015612a5f575b6020831014612a4957565b634e487b7160e01b600052602260045260246000fd5b91607f1691612a3e565b61012081019081106001600160401b03821117612a8557604052565b634e487b7160e01b600052604160045260246000fd5b60c081019081106001600160401b03821117612a8557604052565b6001600160401b038111612a8557604052565b61016081019081106001600160401b03821117612a8557604052565b90601f801991011681019081106001600160401b03821117612a8557604052565b9060405191826000825492612b1a84612a2f565b908184526001948581169081600014612b895750600114612b46575b5050612b4492500383612ae5565b565b9093915060005260209081600020936000915b818310612b71575050612b4493508201013880612b36565b85548884018501529485019487945091830191612b59565b915050612b4494506020925060ff191682840152151560051b8201013880612b36565b9060068210156128f55752565b600435906001600160a01b03821682036128e657565b9181601f840112156128e6578235916001600160401b0383116128e6576020808501948460051b0101116128e657565b60409060031901126128e6576004359060243590565b8054821015612c31576000526006602060002091020190600090565b634e487b7160e01b600052603260045260246000fd5b600754811015612c315760076000527fa66cc928b5edb82af9bd49922954155ab7b0942694bea4ce44661d9a8736c6880190600090565b8054821015612c315760005260206000200190600090565b6001546001600160a01b03163303612caa57565b606460405162461bcd60e51b815260206004820152602060248201527f4f776e61626c653a2063616c6c6572206973206e6f7420746865206f776e65726044820152fd5b6000198114612cfd5760010190565b634e487b7160e01b600052601160045260246000fd5b90601f8111612d2157505050565b600091825260208220906020601f850160051c83019410612d5d575b601f0160051c01915b828110612d5257505050565b818155600101612d46565b9092508290612d3d565b90815491600160401b831015612a8557826114fe916001612b4495018155612c7e565b908060209392818452848401376000828201840152601f01601f1916010190565b15612db257565b60405162461bcd60e51b815260206004820152601f60248201527f50726f6772657373697665457363726f773a206a6f62206e6f74206f70656e006044820152606490fd5b51906001600160a01b03821682036128e657565b6001600160401b038111612a8557601f01601f191660200190565b90929192612e3381612e0b565b91612e416040519384612ae5565b8294828452828201116128e6576020612b4493019061290b565b9080601f830112156128e6578151612e7592602001612e26565b90565b519081151582036128e657565b6020818303126128e65780516001600160401b03918282116128e65701906101a09283838203126128e65760405193840184811083821117612a8557604052612ecd83612df7565b8452612edb60208401612df7565b602085015260408301518281116128e657830181601f820112156128e65781816020612f0993519101612e26565b60408501526060830151606085015260808301518281116128e65781612f30918501612e5b565b608085015260a08301519182116128e657612f4c918301612e5b565b60a083015260c081015160c083015260e081015160e08301526101008082015190830152610120808201519083015261014080820151908301526101608082015190830152612f9f610180809201612e78565b9082015290565b929192612fb282612e0b565b91612fc06040519384612ae5565b8294818452818301116128e6578281602093846000960137010152565b15612fe457565b60405162461bcd60e51b815260206004820152601d60248201527f50726f6772657373697665457363726f773a206e6f7420636c69656e740000006044820152606490fd5b60026000541461303a576002600055565b60405162461bcd60e51b815260206004820152601f60248201527f5265656e7472616e637947756172643a207265656e7472616e742063616c6c006044820152606490fd5b9190811015612c315760051b0190565b3560ff811681036128e65790565b91908201809211612cfd57565b8054821015612c31576000526009602060002091020190600090565b3d156130f1573d906130d782612e0b565b916130e56040519384612ae5565b82523d6000602084013e565b606090565b6130ff816128eb565b806131075750565b613110816128eb565b6001810361315d5760405162461bcd60e51b815260206004820152601860248201527f45434453413a20696e76616c6964207369676e617475726500000000000000006044820152606490fd5b613166816128eb565b600281036131b35760405162461bcd60e51b815260206004820152601f60248201527f45434453413a20696e76616c6964207369676e6174757265206c656e677468006044820152606490fd5b806131bf6003926128eb565b146131c657565b60405162461bcd60e51b815260206004820152602260248201527f45434453413a20696e76616c6964207369676e6174757265202773272076616c604482015261756560f01b6064820152608490fd5b90604181511460001461324457613240916020820151906060604084015193015160001a9061324e565b9091565b5050600090600290565b9291907f7fffffffffffffffffffffffffffffff5d576e7357a4501ddfe92f46681b20a083116132d15791608094939160ff602094604051948552168484015260408301526060820152600093849182805260015afa156132c45781516001600160a01b038116156132be579190565b50600190565b50604051903d90823e3d90fd5b50505050600090600390565b60008181526003806020526040822091600180828091600787018054935b84811061336c575050505050926020926005927f152d31e943f2d79d470375c901f5a6cfb7d465ee4969db651885948d3b6015b8956000146133525750600682019060ff198254161790555b0154604051908152a2565b9050156133475760068101805460ff191683179055613347565b61337681836130aa565b5060ff600280920154169061338a826128eb565b81036133f1575b61339a816128eb565b8881146133e8575b6133ab816128eb565b80159081156133d4575b506133c8576133c390612cee565b6132fb565b50505050505050505050565b600491506133e1816128eb565b14386133b5565b965082966133a2565b95508395613391565b6001600160401b038111612a855760051b60200190565b9060405161341e81612a69565b6101006008829460ff81541684526001810154602085015260ff600282015416613447816128eb565b60408501526003810154606085015261346260048201612b06565b6080850152600581015460a0850152600681015460c0850152600781015460e0850152015491015256fea26469706673582212204989d62614b7e1997ebda20d1f03f23b5510a3285ee1ea17be15f1405345ecb764736f6c63430008140033",
  "linkReferences": {},
  "deployedLinkReferences": {}
}