{
  "_format": "hh-sol-artifact-1",
  "contractName": "SubscriptionEscrow",
  "sourceName": "src/SubscriptionEscrow.sol",
  "abi": [
    {
      "inputs": [
        {
          "internalType": "address",
          "name": "_agentRegistry",
          "type": "address"
        }
      ],
      "stateMutability": "nonpayable",
      "type": "constructor"
    },
    {
      "anonymous": false,
      "inputs": [
        {
          "indexed": true,
          "internalType": "uint256",
          "name": "subscriptionId",
          "type": "uint256"
        },
        {
          "indexed": true,
          "internalType": "uint256",
          "name": "agentId",
          "type": "uint256"
        },
        {
          "indexed": false,
          "internalType": "uint256",
          "name": "timestamp",
          "type": "uint256"
        },
        {
          "indexed": false,
          "internalType": "bytes",
          "name": "alertData",
          "type": "bytes"
        },
        {
          "indexed": false,
          "internalType": "uint256",
          "name": "amountDrained",
          "type": "uint256"
        }
      ],
      "name": "AlertFired",
      "type": "event"
    },
    {
      "anonymous": false,
      "inputs": [
        {
          "indexed": true,
          "internalType": "uint256",
          "name": "subscriptionId",
          "type": "uint256"
        },
        {
          "indexed": true,
          "internalType": "uint256",
          "name": "agentId",
          "type": "uint256"
        },
        {
          "indexed": false,
          "internalType": "uint256",
          "name": "amount",
          "type": "uint256"
        },
        {
          "indexed": false,
          "internalType": "uint256",
          "name": "timestamp",
          "type": "uint256"
        }
      ],
      "name": "CheckInDrained",
      "type": "event"
    },
    {
      "anonymous": false,
      "inputs": [
        {
          "indexed": true,
          "internalType": "uint256",
          "name": "subscriptionId",
          "type": "uint256"
        },
        {
          "indexed": false,
          "internalType": "uint256",
          "name": "interval",
          "type": "uint256"
        }
      ],
      "name": "IntervalApproved",
      "type": "event"
    },
    {
      "anonymous": false,
      "inputs": [
        {
          "indexed": true,
          "internalType": "uint256",
          "name": "subscriptionId",
          "type": "uint256"
        },
        {
          "indexed": false,
          "internalType": "uint256",
          "name": "suggestedInterval",
          "type": "uint256"
        }
      ],
      "name": "IntervalProposed",
      "type": "event"
    },
    {
      "anonymous": false,
      "inputs": [
        {
          "indexed": true,
          "internalType": "uint256",
          "name": "subscriptionId",
          "type": "uint256"
        },
        {
          "indexed": false,
          "internalType": "uint256",
          "name": "newInterval",
          "type": "uint256"
        }
      ],
      "name": "IntervalUpdated",
      "type": "event"
    },
    {
      "anonymous": false,
      "inputs": [
        {
          "indexed": true,
          "internalType": "uint256",
          "name": "subscriptionId",
          "type": "uint256"
        },
        {
          "indexed": false,
          "internalType": "string",
          "name": "reason",
          "type": "string"
        },
        {
          "indexed": false,
          "internalType": "uint256",
          "name": "refund",
          "type": "uint256"
        }
      ],
      "name": "SubscriptionCancelled",
      "type": "event"
    },
    {
      "anonymous": false,
      "inputs": [
        {
          "indexed": true,
          "internalType": "uint256",
          "name": "subscriptionId",
          "type": "uint256"
        },
        {
          "indexed": true,
          "internalType": "uint256",
          "name": "agentId",
          "type": "uint256"
        },
        {
          "indexed": false,
          "internalType": "address",
          "name": "client",
          "type": "address"
        },
        {
          "indexed": false,
          "internalType": "uint256",
          "name": "budget",
          "type": "uint256"
        }
      ],
      "name": "SubscriptionCreated",
      "type": "event"
    },
    {
      "anonymous": false,
      "inputs": [
        {
          "indexed": true,
          "internalType": "uint256",
          "name": "subscriptionId",
          "type": "uint256"
        },
        {
          "indexed": false,
          "internalType": "string",
          "name": "reason",
          "type": "string"
        }
      ],
      "name": "SubscriptionPaused",
      "type": "event"
    },
    {
      "anonymous": false,
      "inputs": [
        {
          "indexed": true,
          "internalType": "uint256",
          "name": "subscriptionId",
          "type": "uint256"
        },
        {
          "indexed": false,
          "internalType": "uint256",
          "name": "newBalance",
          "type": "uint256"
        }
      ],
      "name": "SubscriptionResumed",
      "type": "event"
    },
    {
      "anonymous": false,
      "inputs": [
        {
          "indexed": true,
          "internalType": "uint256",
          "name": "subscriptionId",
          "type": "uint256"
        },
        {
          "indexed": true,
          "internalType": "uint256",
          "name": "agentId",
          "type": "uint256"
        },
        {
          "indexed": false,
          "internalType": "uint256",
          "name": "amount",
          "type": "uint256"
        }
      ],
      "name": "X402BonusPaid",
      "type": "event"
    },
    {
      "inputs": [],
      "name": "AUTO_INTERVAL",
      "outputs": [
        {
          "internalType": "uint256",
          "name": "",
          "type": "uint256"
        }
      ],
      "stateMutability": "view",
      "type": "function"
    },
    {
      "inputs": [],
      "name": "DEFAULT_GRACE_PERIOD",
      "outputs": [
        {
          "internalType": "uint256",
          "name": "",
          "type": "uint256"
        }
      ],
      "stateMutability": "view",
      "type": "function"
    },
    {
      "inputs": [],
      "name": "MAX_GRACE_PERIOD",
      "outputs": [
        {
          "internalType": "uint256",
          "name": "",
          "type": "uint256"
        }
      ],
      "stateMutability": "view",
      "type": "function"
    },
    {
      "inputs": [],
      "name": "MIN_GRACE_PERIOD",
      "outputs": [
        {
          "internalType": "uint256",
          "name": "",
          "type": "uint256"
        }
      ],
      "stateMutability": "view",
      "type": "function"
    },
    {
      "inputs": [],
      "name": "agentRegistry",
      "outputs": [
        {
          "internalType": "contract IAgentRegistry",
          "name": "",
          "type": "address"
        }
      ],
      "stateMutability": "view",
      "type": "function"
    },
    {
      "inputs": [
        {
          "internalType": "address",
          "name": "",
          "type": "address"
        },
        {
          "internalType": "uint256",
          "name": "",
          "type": "uint256"
        }
      ],
      "name": "agentSubscriptions",
      "outputs": [
        {
          "internalType": "uint256",
          "name": "",
          "type": "uint256"
        }
      ],
      "stateMutability": "view",
      "type": "function"
    },
    {
      "inputs": [
        {
          "internalType": "uint256",
          "name": "subscriptionId",
          "type": "uint256"
        }
      ],
      "name": "approveInterval",
      "outputs": [],
      "stateMutability": "nonpayable",
      "type": "function"
    },
    {
      "inputs": [
        {
          "internalType": "uint256",
          "name": "subscriptionId",
          "type": "uint256"
        }
      ],
      "name": "cancelSubscription",
      "outputs": [],
      "stateMutability": "nonpayable",
      "type": "function"
    },
    {
      "inputs": [
        {
          "internalType": "address",
          "name": "",
          "type": "address"
        },
        {
          "internalType": "uint256",
          "name": "",
          "type": "uint256"
        }
      ],
      "name": "clientSubscriptions",
      "outputs": [
        {
          "internalType": "uint256",
          "name": "",
          "type": "uint256"
        }
      ],
      "stateMutability": "view",
      "type": "function"
    },
    {
      "inputs": [
        {
          "internalType": "uint256",
          "name": "agentId",
          "type": "uint256"
        },
        {
          "internalType": "string",
          "name": "taskDescription",
          "type": "string"
        },
        {
          "internalType": "uint256",
          "name": "intervalSeconds",
          "type": "uint256"
        },
        {
          "internalType": "uint256",
          "name": "checkInRate",
          "type": "uint256"
        },
        {
          "internalType": "uint256",
          "name": "alertRate",
          "type": "uint256"
        },
        {
          "internalType": "uint256",
          "name": "gracePeriodSeconds",
          "type": "uint256"
        },
        {
          "internalType": "bool",
          "name": "x402Enabled",
          "type": "bool"
        },
        {
          "internalType": "enum SubscriptionEscrow.X402VerificationMode",
          "name": "x402VerificationMode",
          "type": "uint8"
        },
        {
          "internalType": "bytes",
          "name": "clientX402Sig",
          "type": "bytes"
        },
        {
          "internalType": "string",
          "name": "webhookUrl",
          "type": "string"
        }
      ],
      "name": "createSubscription",
      "outputs": [
        {
          "internalType": "uint256",
          "name": "subscriptionId",
          "type": "uint256"
        }
      ],
      "stateMutability": "payable",
      "type": "function"
    },
    {
      "inputs": [
        {
          "internalType": "uint256",
          "name": "subscriptionId",
          "type": "uint256"
        },
        {
          "internalType": "bytes",
          "name": "alertData",
          "type": "bytes"
        }
      ],
      "name": "drainPerAlert",
      "outputs": [],
      "stateMutability": "nonpayable",
      "type": "function"
    },
    {
      "inputs": [
        {
          "internalType": "uint256",
          "name": "subscriptionId",
          "type": "uint256"
        }
      ],
      "name": "drainPerCheckIn",
      "outputs": [],
      "stateMutability": "nonpayable",
      "type": "function"
    },
    {
      "inputs": [
        {
          "internalType": "uint256",
          "name": "subscriptionId",
          "type": "uint256"
        }
      ],
      "name": "finalizeExpired",
      "outputs": [],
      "stateMutability": "nonpayable",
      "type": "function"
    },
    {
      "inputs": [
        {
          "internalType": "address",
          "name": "agentWallet",
          "type": "address"
        }
      ],
      "name": "getAgentSubscriptions",
      "outputs": [
        {
          "internalType": "uint256[]",
          "name": "",
          "type": "uint256[]"
        }
      ],
      "stateMutability": "view",
      "type": "function"
    },
    {
      "inputs": [
        {
          "internalType": "uint256",
          "name": "subscriptionId",
          "type": "uint256"
        }
      ],
      "name": "getBalance",
      "outputs": [
        {
          "internalType": "uint256",
          "name": "",
          "type": "uint256"
        }
      ],
      "stateMutability": "view",
      "type": "function"
    },
    {
      "inputs": [
        {
          "internalType": "address",
          "name": "client",
          "type": "address"
        }
      ],
      "name": "getClientSubscriptions",
      "outputs": [
        {
          "internalType": "uint256[]",
          "name": "",
          "type": "uint256[]"
        }
      ],
      "stateMutability": "view",
      "type": "function"
    },
    {
      "inputs": [
        {
          "internalType": "uint256",
          "name": "subscriptionId",
          "type": "uint256"
        }
      ],
      "name": "getStatus",
      "outputs": [
        {
          "internalType": "enum SubscriptionEscrow.Status",
          "name": "",
          "type": "uint8"
        }
      ],
      "stateMutability": "view",
      "type": "function"
    },
    {
      "inputs": [
        {
          "internalType": "uint256",
          "name": "subscriptionId",
          "type": "uint256"
        }
      ],
      "name": "getSubscription",
      "outputs": [
        {
          "components": [
            {
              "internalType": "uint256",
              "name": "subscriptionId",
              "type": "uint256"
            },
            {
              "internalType": "address",
              "name": "client",
              "type": "address"
            },
            {
              "internalType": "uint256",
              "name": "agentId",
              "type": "uint256"
            },
            {
              "internalType": "address",
              "name": "agentWallet",
              "type": "address"
            },
            {
              "internalType": "string",
              "name": "taskDescription",
              "type": "string"
            },
            {
              "internalType": "uint256",
              "name": "intervalSeconds",
              "type": "uint256"
            },
            {
              "internalType": "enum SubscriptionEscrow.IntervalMode",
              "name": "intervalMode",
              "type": "uint8"
            },
            {
              "internalType": "uint256",
              "name": "checkInRate",
              "type": "uint256"
            },
            {
              "internalType": "uint256",
              "name": "alertRate",
              "type": "uint256"
            },
            {
              "internalType": "uint256",
              "name": "balance",
              "type": "uint256"
            },
            {
              "internalType": "uint256",
              "name": "totalDrained",
              "type": "uint256"
            },
            {
              "internalType": "enum SubscriptionEscrow.Status",
              "name": "status",
              "type": "uint8"
            },
            {
              "internalType": "uint256",
              "name": "createdAt",
              "type": "uint256"
            },
            {
              "internalType": "uint256",
              "name": "lastCheckIn",
              "type": "uint256"
            },
            {
              "internalType": "uint256",
              "name": "pausedAt",
              "type": "uint256"
            },
            {
              "internalType": "uint256",
              "name": "gracePeriodEnds",
              "type": "uint256"
            },
            {
              "internalType": "uint256",
              "name": "gracePeriodSeconds",
              "type": "uint256"
            },
            {
              "internalType": "bool",
              "name": "x402Enabled",
              "type": "bool"
            },
            {
              "internalType": "enum SubscriptionEscrow.X402VerificationMode",
              "name": "x402VerificationMode",
              "type": "uint8"
            },
            {
              "internalType": "bytes",
              "name": "clientX402Sig",
              "type": "bytes"
            },
            {
              "internalType": "string",
              "name": "webhookUrl",
              "type": "string"
            },
            {
              "internalType": "uint256",
              "name": "proposedInterval",
              "type": "uint256"
            }
          ],
          "internalType": "struct SubscriptionEscrow.Subscription",
          "name": "",
          "type": "tuple"
        }
      ],
      "stateMutability": "view",
      "type": "function"
    },
    {
      "inputs": [
        {
          "internalType": "uint256",
          "name": "subscriptionId",
          "type": "uint256"
        },
        {
          "internalType": "uint256",
          "name": "suggestedInterval",
          "type": "uint256"
        }
      ],
      "name": "proposeInterval",
      "outputs": [],
      "stateMutability": "nonpayable",
      "type": "function"
    },
    {
      "inputs": [
        {
          "internalType": "uint256",
          "name": "subscriptionId",
          "type": "uint256"
        },
        {
          "internalType": "string",
          "name": "webhookUrl",
          "type": "string"
        }
      ],
      "name": "setWebhookUrl",
      "outputs": [],
      "stateMutability": "nonpayable",
      "type": "function"
    },
    {
      "inputs": [
        {
          "internalType": "uint256",
          "name": "",
          "type": "uint256"
        }
      ],
      "name": "subscriptions",
      "outputs": [
        {
          "internalType": "uint256",
          "name": "subscriptionId",
          "type": "uint256"
        },
        {
          "internalType": "address",
          "name": "client",
          "type": "address"
        },
        {
          "internalType": "uint256",
          "name": "agentId",
          "type": "uint256"
        },
        {
          "internalType": "address",
          "name": "agentWallet",
          "type": "address"
        },
        {
          "internalType": "string",
          "name": "taskDescription",
          "type": "string"
        },
        {
          "internalType": "uint256",
          "name": "intervalSeconds",
          "type": "uint256"
        },
        {
          "internalType": "enum SubscriptionEscrow.IntervalMode",
          "name": "intervalMode",
          "type": "uint8"
        },
        {
          "internalType": "uint256",
          "name": "checkInRate",
          "type": "uint256"
        },
        {
          "internalType": "uint256",
          "name": "alertRate",
          "type": "uint256"
        },
        {
          "internalType": "uint256",
          "name": "balance",
          "type": "uint256"
        },
        {
          "internalType": "uint256",
          "name": "totalDrained",
          "type": "uint256"
        },
        {
          "internalType": "enum SubscriptionEscrow.Status",
          "name": "status",
          "type": "uint8"
        },
        {
          "internalType": "uint256",
          "name": "createdAt",
          "type": "uint256"
        },
        {
          "internalType": "uint256",
          "name": "lastCheckIn",
          "type": "uint256"
        },
        {
          "internalType": "uint256",
          "name": "pausedAt",
          "type": "uint256"
        },
        {
          "internalType": "uint256",
          "name": "gracePeriodEnds",
          "type": "uint256"
        },
        {
          "internalType": "uint256",
          "name": "gracePeriodSeconds",
          "type": "uint256"
        },
        {
          "internalType": "bool",
          "name": "x402Enabled",
          "type": "bool"
        },
        {
          "internalType": "enum SubscriptionEscrow.X402VerificationMode",
          "name": "x402VerificationMode",
          "type": "uint8"
        },
        {
          "internalType": "bytes",
          "name": "clientX402Sig",
          "type": "bytes"
        },
        {
          "internalType": "string",
          "name": "webhookUrl",
          "type": "string"
        },
        {
          "internalType": "uint256",
          "name": "proposedInterval",
          "type": "uint256"
        }
      ],
      "stateMutability": "view",
      "type": "function"
    },
    {
      "inputs": [
        {
          "internalType": "uint256",
          "name": "subscriptionId",
          "type": "uint256"
        }
      ],
      "name": "topUp",
      "outputs": [],
      "stateMutability": "payable",
      "type": "function"
    },
    {
      "inputs": [],
      "name": "totalSubscriptions",
      "outputs": [
        {
          "internalType": "uint256",
          "name": "",
          "type": "uint256"
        }
      ],
      "stateMutability": "view",
      "type": "function"
    },
    {
      "inputs": [
        {
          "internalType": "uint256",
          "name": "subscriptionId",
          "type": "uint256"
        },
        {
          "internalType": "uint256",
          "name": "newInterval",
          "type": "uint256"
        }
      ],
      "name": "updateInterval",
      "outputs": [],
      "stateMutability": "nonpayable",
      "type": "function"
    }
  ],
  "bytecode": "0x60a0346100c457601f620029e138819003918201601f19168301916001600160401b038311848410176100c9578084926020946040528339810103126100c457516001600160a01b038116908190036100c45760016000558015610080576080526040516129019081620000e0823960805181818161089c015261207d0152f35b606460405162461bcd60e51b815260206004820152602060248201527f537562736372697074696f6e457363726f773a207a65726f20616464726573736044820152fd5b600080fd5b634e487b7160e01b600052604160045260246000fdfe6101c080604052600436101561001457600080fd5b60003560e01c9081630d1cfcae1461206a575080631328b8701461204c5780631e0104391461201d5780632087133214611e585780632123508314611cfe5780632d5bbf6014611ade5780634661964914611ac057806348a7dc77146119a457806349191e4b146119875780634c49fab81461196957806350017f3e146117f857806358df01f2146117a05780635c622a0e146117675780635cccc1641461158e57806360fcfd461461151657806385b9b9f51461141c578063883a0038146113ff57806394d6886d1461133b578063a52e7f7f146112b3578063a5b302851461125a578063adae2cb4146107da578063d244a64c14610652578063dc311dd3146103055763e15501c11461012857600080fd5b3461030057610136366120d9565b9061013f6124a4565b82600052600260205260018060a01b039061016582600360406000200154163314612664565b83600052600260205260ff600b604060002001541660048110156102ea57600161018f91146126b0565b836000526002602052604060002092600884015480156102995760008080809360079789978b7fc580c63c460b57ae10e8da32350faf8710ba67b5ee3d08f1b8ad8d7bbf70285261025c996080600260098e019d8e6101fb8a82546101f6828210156126fc565b612759565b9055600a810161020c8a8254612497565b905501549482604051938492428452606060208501528160608501528484013789838284010152886040830152601f80199101168101030190a360038a0154165af1610256612546565b50612766565b54910154809110908161028f575b50610277575b6001600055005b610289906102836127be565b90612856565b38610270565b905015153861026a565b60405162461bcd60e51b815260206004820152602360248201527f537562736372697074696f6e457363726f773a20616c657274732064697361626044820152621b195960ea1b6064820152608490fd5b634e487b7160e01b600052602160045260246000fd5b600080fd5b346103005760203660031901126103005760006102a060405161032781612146565b828152826020820152826040820152826060820152606060808201528260a08201528260c08201528260e08201528261010082015282610120820152826101408201528261016082015282610180820152826101a0820152826101c0820152826101e0820152826102008201528261022082015282610240820152606061026082015260606102808201520152600435600052600260205260406000206014604051916103d383612146565b8054835260018101546001600160a01b03908116602085015260028201546040850152600382015416606084015261040d60048201612183565b6080840152600581015460a084015261043060ff60068301541660c085016123e5565b600781015460e084015260088101546101008401526009810154610120840152600a81015461014084015261047060ff600b8301541661016085016123f1565b600c810154610180840152600d8101546101a0840152600e8101546101c0840152600f8101546101e084015260108101546102008401526104ca60ff6011830154818116151561022087015260081c1661024085016123fd565b6104d660128201612183565b6102608401526104e860138201612183565b61028084015201546102a08201526040518091602082528051602083015260018060a01b0360208201511660408301526040810151606083015260018060a01b0360608201511660808301526102a061064561055560808401516102c060a08701526102e086019061224c565b60a084015160c086015261057160c085015160e0870190612271565b60e08401516101008601526101008401516101208601526101208401516101408601526101408401516101608601526105b461016085015161018087019061227e565b6101808401516101a08601526101a08401516101c08601526101c08401516101e08601526101e0840151610200860152610200840151610220860152610220840151151561024086015261061261024085015161026087019061228b565b61063061026085015191601f1992838883030161028089015261224c565b9061028085015190868303018487015261224c565b9101516102c08301520390f35b346103005760203660031901126103005760043561066e6124a4565b8060005260026020526040600020600b8101805460ff811660048110156102ea5760020361079557600f83015442106107425782608092600360097f95b955f1152b58d631209e3e0f90841c1b7d8c45c98f0935073f932ba8e754b196019360008554955560ff19161790558180610715575b50506040519060408252600d60408301526c11d49050d157d1561412549151609a1b60608301526020820152a26001600055005b60008080809361073b956001808060a01b03910154165af1610735612546565b50612576565b84816106e1565b60405162461bcd60e51b815260206004820152602560248201527f537562736372697074696f6e457363726f773a206772616365206e6f742065786044820152641c1a5c995960da1b6064820152608490fd5b60405162461bcd60e51b815260206004820152601e60248201527f537562736372697074696f6e457363726f773a206e6f742070617573656400006044820152606490fd5b610140366003190112610300576024356001600160401b038111610300576108069036906004016120ac565b60c435801515810361030057600260e435101561030057610104356001600160401b0381116103005761083d9036906004016120ac565b90610124356001600160401b0381116103005761085e9036906004016120ac565b91909234156112065785156111b357606435158015906111a8575b1561114c5760405163784c53d760e11b81526004803590820152946000866024817f00000000000000000000000000000000000000000000000000000000000000006001600160a01b03165afa95861561114057600096610fbd575b5061018086015115610f6c5760208601516001600160a01b031615610f1657604435610efe576001975b60a43580610ece575062015180905b600154996000198b14610eb85760018b0160015560038110156102ea578a9960018203610eb0576000925b60208b01516001600160a01b03169160018403610ea7576000925b6040519e8f9061096382612146565b60010181523360208201526004356040820152606001523690610985926123ae565b60808d015260a08c015261099c9060c08c016123e5565b60643560e08b01526084356101008b0152346101208b015260006101408b01526109ca906101608b016123f1565b426101808a015260006101a08a018190526101c08a018190526101e08a01526102008901521515610220880152610a0760e43561024089016123fd565b3690610a12926123ae565b6102608601523690610a23926123ae565b6102808401526102a083016000905260018201600052600260205260406000208351815560018101600160a01b60019003602086015116906bffffffffffffffffffffffff60a01b9182825416179055604085015160028301556003820190600160a01b600190036060870151169082541617905560808401518051906001600160401b038211610da3578190610aca82610ac1600487015461210c565b60048701612409565b602090601f8311600114610e3557600092610e2a575b50508160011b916000199060031b1c19161760048201555b60a0840151600582015560c084015160038110156102ea576006820160ff199160ff83835416911617905560e0850151600783015561010085015160088301556101208501516009830155610140850151600a83015561016085015160048110156102ea5760ff600b8401928354169116179055610180840151600c8201556101a0840151600d8201556101c0840151600e8201556101e0840151600f8201556102008401516010820155601181016102208501511515815461024087015160028110156102ea5761ff0060ff9160081b1692169061ffff19161717905561026084015180516001600160401b038111610da357806012840192610c0682610c00865461210c565b86612409565b602090601f8311600114610dc457600092610db9575b50508160011b916000199060031b1c19161790555b6102808401519384516001600160401b038111610da357602095610c6582610c5c601387015461210c565b60138701612409565b8690601f8311600114610d2f579180601494926102a094600092610d24575b50508160011b916000199060031b1c19161760138501555b01519101553360005260038352610cba60018301604060002061245d565b8201516001600160a01b031660009081526004835260409020610ce190600183019061245d565b6040513381523483820152600435907fbd86ae7c057a07b4cce4ace781f75b323a5d5f22cb0dc58d410d80c9b21e3d6060406001850192a3600160405191018152f35b015190508980610c84565b9060138501600052876000209160005b601f1985168110610d8c575092601494926001926102a09583601f19811610610d73575b505050811b016013850155610c9c565b015160001960f88460031b161c19169055898080610d63565b919289600181928685015181550194019201610d3f565b634e487b7160e01b600052604160045260246000fd5b015190508780610c1c565b6000858152602081209350601f198516905b818110610e125750908460019594939210610df9575b505050811b019055610c31565b015160001960f88460031b161c19169055878080610dec565b92936020600181928786015181550195019301610dd6565b015190508680610ae0565b9250600484016000526020600020906000935b601f1984168510610e8c576001945083601f19811610610e73575b505050811b016004820155610af8565b015160001960f88460031b161c19169055868080610e63565b81810151835560209485019460019093019290910190610e48565b60443592610954565b600192610939565b634e487b7160e01b600052601160045260246000fd5b610e109081811015610ee157509061090e565b91905062093a80808311610ef6575b5061090e565b91508a610ef0565b60443519610f0e576002976108ff565b6000976108ff565b60405162461bcd60e51b815260206004820152602860248201527f537562736372697074696f6e457363726f773a20696e76616c6964206167656e6044820152671d081dd85b1b195d60c21b6064820152608490fd5b60405162461bcd60e51b8152602060048201526024808201527f537562736372697074696f6e457363726f773a206167656e74206e6f742061636044820152637469766560e01b6064820152608490fd5b9095503d90816000823e610fd18282612162565b6020818381010312610300578051906001600160401b038211610300576101a082820184830103126103005760405192836101a08101106001600160401b036101a086011117610da3576101a0840160405261102e83830161232d565b845261103e60208484010161232d565b6020850152604083830101516001600160401b03811161030057818301601f82868601010112156103005783830101805161108091848401919060200161235c565b604085015281830160608181015190860152608001516001600160401b038111610300576110b5908284019085850101612391565b608085015260a083830101516001600160401b038111610300576110df9183019084840101612391565b60a08401520160c0818101519083015260e080820151908301526101008082015190830152610120808201519083015261014080820151908301526101608082015190830152610180908101519081151582036103005782015294886108d5565b6040513d6000823e3d90fd5b60405162461bcd60e51b815260206004820152602e60248201527f537562736372697074696f6e457363726f773a206e656564206174206c65617360448201526d074206f6e652072617465203e20360941b6064820152608490fd5b506084351515610879565b60405162461bcd60e51b815260206004820152602560248201527f537562736372697074696f6e457363726f773a20656d70747920646573637269604482015264383a34b7b760d91b6064820152608490fd5b60405162461bcd60e51b815260206004820152602660248201527f537562736372697074696f6e457363726f773a20627564676574206d7573742060448201526506265203e20360d41b6064820152608490fd5b3461030057604036600319011261030057611273612298565b6001600160a01b0316600090815260036020526040902080546024359190821015610300576020916112a4916122ae565b90549060031b1c604051908152f35b3461030057602080600319360112610300576001600160a01b036112d5612298565b1660005260038152604060002090604051908181845491828152019360005281600020916000905b828210611324576113208561131481890382612162565b604051918291826122dc565b0390f35b8354865294850194600193840193909101906112fd565b346103005761134936612317565b81600052600260205261136d60018060a01b03600360406000200154163314612664565b81600052600260205260ff600b604060002001541660048110156102ea5761139590156125cc565b81600052600260205260406000209060ff6006830154169060038210156102ea578060147f187eb6b9440387270575327782d589ab77808e00dd5d66b97c92d44c86d91c62946113e9600160209614612618565b6113f48315156127fe565b0155604051908152a2005b34610300576000366003190112610300576020604051610e108152f35b346103005761142a36612317565b81600052600260205261144e60018060a01b03600360406000200154163314612664565b81600052600260205260ff600b604060002001541660048110156102ea57600161147891146126b0565b816000526002602052604060002060ff60068201541660038110156102ea576002036114d157818060056020936113f47ffb31078e997942f210196a5b038941d4f606fd4dedf556c577cfc90b92f8068c9615156127fe565b60405162461bcd60e51b815260206004820152601e60248201527f537562736372697074696f6e457363726f773a206e6f74204d6f6465204300006044820152606490fd5b3461030057602080600319360112610300576001600160a01b03611538612298565b1660005260048152604060002090604051908181845491828152019360005281600020916000905b828210611577576113208561131481890382612162565b835486529485019460019384019390910190611560565b346103005760208060031936011261030057600435906115ac6124a4565b816000526002815260018060a01b036115d081600360406000200154163314612664565b826000526002825260ff600b604060002001541660048110156102ea5760016115f991146126b0565b8260005260028252604060002091600d83019161161c8354600586015490612497565b421061172257600784019384549283156116d05760006116af94819460038584969560098697019a611656868d546101f6828210156126fc565b8c55600a8301611667878254612497565b90554290558c7ffef5f54cea4c695a495a16a29d272399687cef14aa98e741a08baff5e328b73960406002850154938151908982524290820152a30154165af1610256612546565b549054116116be576001600055005b6116ca906102836127be565b80610270565b6084906040519062461bcd60e51b82526004820152602560248201527f537562736372697074696f6e457363726f773a20636865636b2d696e2064697360448201526418589b195960da1b6064820152fd5b60405162461bcd60e51b815260048101839052601d60248201527f537562736372697074696f6e457363726f773a20746f6f206561726c790000006044820152606490fd5b34610300576020366003190112610300576004356000526002602052602060ff600b604060002001541661179e604051809261227e565bf35b34610300576040366003190112610300576117b9612298565b6001600160a01b0316600090815260046020526040902080546024359190821015610300576020916117ea916122ae565b90546040519160031b1c8152f35b60203660031901126103005760043561180f6124a4565b341561191a578060005260026020526040600020600b81019081549160ff831690600482101591826102ea5760018114801561190c575b156118bc57600984019261185b348554612497565b8094556102ea57600214611870576001600055005b600f60209360009260017fa18a8ed61dba44463d966eda946a4c8e506a9423b0bea7d6ef944b9f70a5b7e19760ff191617905582600e8201550155604051908152a28080808080610270565b60405162461bcd60e51b815260206004820152602260248201527f537562736372697074696f6e457363726f773a20696e76616c69642073746174604482015261757360f01b6064820152608490fd5b506000925060028114611846565b60405162461bcd60e51b815260206004820152602160248201527f537562736372697074696f6e457363726f773a206d7573742073656e642045546044820152600960fb1b6064820152608490fd5b34610300576000366003190112610300576020604051620151808152f35b346103005760003660031901126103005760206040516000198152f35b3461030057602080600319360112610300576004359081600052600281526119dd60018060a01b036001604060002001541633146124fa565b816000526002815260ff600b604060002001541660048110156102ea57611a0490156125cc565b8160005260028152604060002060ff60068201541660038110156102ea576001611a2e9114612618565b6014810154908115611a7b5760058101829055600b01805460ff191660011790556040519081527fcd4259ca8065a1c2162a23d530af618f9a483e697dcda75bfdb1b04c840d3cd39190a2005b60405162461bcd60e51b815260048101849052601f60248201527f537562736372697074696f6e457363726f773a206e6f2070726f706f73616c006044820152606490fd5b3461030057600036600319011261030057602060405162093a808152f35b3461030057602036600319011261030057600435600052600260205260406000208060e052805460c052600160a01b6001900390816001820154169160028201546101405260038201541661018052600401611b3990612183565b9060e051906005820154608052600682015460ff1692600783015460088401546009850154600a860154600b87015460ff1691600c88015493600d89015495600e8a015497600f8b01549960108c01549b60118101546101a052601201611b9f90612183565b6101605260e051601301611bb290612183565b60a05260e0516014015461012052604051806101005260c051905261010051602001526101405161010051604001526101805161010051606001526102c08061010051608001526101005101611c079161224c565b9a6080516101005160a001526101005160c001611c2391612271565b6101005160e001526101005161010001526101005161012001526101005161014001526101005161016001611c579161227e565b610100516101800152610100516101a00152610100516101c00152610100516101e001526101005161020001526101a05160ff16151561010051610220015261010051610240016101a05160081c60ff1690611cb29161228b565b610100518082039061026001526101605190611ccd9161224c565b6101005180820390610280015260a05190611ce79161224c565b61012051610100516102a001526101005180910390f35b3461030057602036600319011261030057600435611d1a6124a4565b80600052600260205260018060a01b03611d3f816001604060002001541633146124fa565b816000526002602052604060002090600b82019081549060ff821660048110156102ea57600314611e055783608093600360097f95b955f1152b58d631209e3e0f90841c1b7d8c45c98f0935073f932ba8e754b197019460008654965560ff19161790558280611de2575b5050506040519060408252601060408301526f10d31251539517d0d05390d15313115160821b60608301526020820152a26001600055005b600080809392611dfd95600183950154165af1610735612546565b848082611daa565b60405162461bcd60e51b815260206004820152602560248201527f537562736372697074696f6e457363726f773a20616c72656164792063616e63604482015264195b1b195960da1b6064820152608490fd5b3461030057611e66366120d9565b90916000526020906002825260406000209160018060a01b0392600193808583015416331490811561200d575b5015611fbd5760ff600b8201541660048110156102ea57600314611f7857601301936001600160401b038311610da357611ed783611ed1875461210c565b87612409565b600091601f8411600114611f155750928293918392600094611f0a575b50501b916000199060031b1c1916179055600080f35b013592508580611ef4565b9183601f1981168760005284600020946000905b88838310611f5e5750505010611f44575b505050811b019055005b0135600019600384901b60f8161c19169055838080611f3a565b868601358855909601959384019387935090810190611f29565b60405162461bcd60e51b815260048101839052601d60248201527f537562736372697074696f6e457363726f773a2063616e63656c6c65640000006044820152606490fd5b60405162461bcd60e51b815260048101839052602260248201527f537562736372697074696f6e457363726f773a206e6f7420617574686f72697a604482015261195960f21b6064820152608490fd5b9050600382015416331486611e93565b346103005760203660031901126103005760043560005260026020526020600960406000200154604051908152f35b34610300576000366003190112610300576020600154604051908152f35b34610300576000366003190112610300577f00000000000000000000000000000000000000000000000000000000000000006001600160a01b03168152602090f35b9181601f84011215610300578235916001600160401b038311610300576020838186019501011161030057565b9060406003198301126103005760043591602435906001600160401b03821161030057612108916004016120ac565b9091565b90600182811c9216801561213c575b602083101461212657565b634e487b7160e01b600052602260045260246000fd5b91607f169161211b565b6102c081019081106001600160401b03821117610da357604052565b90601f801991011681019081106001600160401b03821117610da357604052565b90604051918260008254926121978461210c565b90818452600194858116908160001461220657506001146121c3575b50506121c192500383612162565b565b9093915060005260209081600020936000915b8183106121ee5750506121c1935082010138806121b3565b855488840185015294850194879450918301916121d6565b9150506121c194506020925060ff191682840152151560051b82010138806121b3565b60005b83811061223c5750506000910152565b818101518382015260200161222c565b9060209161226581518092818552858086019101612229565b601f01601f1916010190565b9060038210156102ea5752565b9060048210156102ea5752565b9060028210156102ea5752565b600435906001600160a01b038216820361030057565b80548210156122c65760005260206000200190600090565b634e487b7160e01b600052603260045260246000fd5b6020908160408183019282815285518094520193019160005b828110612303575050505090565b8351855293810193928101926001016122f5565b6040906003190112610300576004359060243590565b51906001600160a01b038216820361030057565b6001600160401b038111610da357601f01601f191660200190565b9092919261236981612341565b916123776040519384612162565b8294828452828201116103005760206121c1930190612229565b9080601f830112156103005781516123ab9260200161235c565b90565b9291926123ba82612341565b916123c86040519384612162565b829481845281830111610300578281602093846000960137010152565b60038210156102ea5752565b60048210156102ea5752565b60028210156102ea5752565b90601f811161241757505050565b600091825260208220906020601f850160051c83019410612453575b601f0160051c01915b82811061244857505050565b81815560010161243c565b9092508290612433565b805468010000000000000000811015610da35761247f916001820181556122ae565b819291549060031b91821b91600019901b1916179055565b91908201809211610eb857565b6002600054146124b5576002600055565b60405162461bcd60e51b815260206004820152601f60248201527f5265656e7472616e637947756172643a207265656e7472616e742063616c6c006044820152606490fd5b1561250157565b60405162461bcd60e51b815260206004820152601e60248201527f537562736372697074696f6e457363726f773a206e6f7420636c69656e7400006044820152606490fd5b3d15612571573d9061255782612341565b916125656040519384612162565b82523d6000602084013e565b606090565b1561257d57565b60405162461bcd60e51b815260206004820152602160248201527f537562736372697074696f6e457363726f773a20726566756e64206661696c656044820152601960fa1b6064820152608490fd5b156125d357565b60405162461bcd60e51b815260206004820152601f60248201527f537562736372697074696f6e457363726f773a206e6f742070656e64696e67006044820152606490fd5b1561261f57565b60405162461bcd60e51b815260206004820152601e60248201527f537562736372697074696f6e457363726f773a206e6f74204d6f6465204200006044820152606490fd5b1561266b57565b60405162461bcd60e51b815260206004820152601d60248201527f537562736372697074696f6e457363726f773a206e6f74206167656e740000006044820152606490fd5b156126b757565b60405162461bcd60e51b815260206004820152601e60248201527f537562736372697074696f6e457363726f773a206e6f742061637469766500006044820152606490fd5b1561270357565b60405162461bcd60e51b815260206004820152602860248201527f537562736372697074696f6e457363726f773a20696e73756666696369656e746044820152672062616c616e636560c01b6064820152608490fd5b91908203918211610eb857565b1561276d57565b60405162461bcd60e51b815260206004820152602360248201527f537562736372697074696f6e457363726f773a207472616e73666572206661696044820152621b195960ea1b6064820152608490fd5b60405190604082018281106001600160401b03821117610da3576040526014825273494e53554646494349454e545f42414c414e434560601b6020830152565b1561280557565b60405162461bcd60e51b8152602060048201526024808201527f537562736372697074696f6e457363726f773a20696e76616c696420696e74656044820152631c9d985b60e21b6064820152608490fd5b906128c67f2fbb1fdddd310b35e46fd149f56e2243bee6f8e1d6ec5654eac9f9df3440021e918360005260026020526040600020600b8101600260ff1982541617905542600e820155600f6128af601083015442612497565b91015560405191829160208352602083019061224c565b0390a256fea2646970667358221220f9542ecf162c65e578ff9befb6189ef2cec51236f683cffb964823fb9601ccfa64736f6c63430008140033",
  "linkReferences": {},
  "deployedLinkReferences": {}
}